{
  "_format": "hh-sol-artifact-1",
  "contractName": "CertificateNFT",
  "sourceName": "contracts/CertificateNFT.sol",
  "abi": [
    {
      "inputs": [],
      "stateMutability": "nonpayable",
      "type": "constructor"
    },
    {
      "inputs": [
        {
          "internalType": "address",
          "name": "sender",
          "type": "address"
        },
        {
          "internalType": "uint256",
          "name": "tokenId",
          "type": "uint256"
        },
        {
          "internalType": "address",
          "name": "owner",
          "type": "address"
        }
      ],
      "name": "ERC721IncorrectOwner",
      "type": "error"
    },
    {
      "inputs": [
        {
          "internalType": "address",
          "name": "operator",
          "type": "address"
        },
        {
          "internalType": "uint256",
          "name": "tokenId",
          "type": "uint256"
        }
      ],
      "name": "ERC721InsufficientApproval",
      "type": "error"
    },
    {
      "inputs": [
        {
          "internalType": "address",
          "name": "approver",
          "type": "address"
        }
      ],
      "name": "ERC721InvalidApprover",
      "type": "error"
    },
    {
      "inputs": [
        {
          "internalType": "address",
          "name": "operator",
          "type": "address"
        }
      ],
      "name": "ERC721InvalidOperator",
      "type": "error"
    },
    {
      "inputs": [
        {
          "internalType": "address",
          "name": "owner",
          "type": "address"
        }
      ],
      "name": "ERC721InvalidOwner",
      "type": "error"
    },
    {
      "inputs": [
        {
          "internalType": "address",
          "name": "receiver",
          "type": "address"
        }
      ],
      "name": "ERC721InvalidReceiver",
      "type": "error"
    },
    {
      "inputs": [
        {
          "internalType": "address",
          "name": "sender",
          "type": "address"
        }
      ],
      "name": "ERC721InvalidSender",
      "type": "error"
    },
    {
      "inputs": [
        {
          "internalType": "uint256",
          "name": "tokenId",
          "type": "uint256"
        }
      ],
      "name": "ERC721NonexistentToken",
      "type": "error"
    },
    {
      "inputs": [
        {
          "internalType": "address",
          "name": "owner",
          "type": "address"
        }
      ],
      "name": "OwnableInvalidOwner",
      "type": "error"
    },
    {
      "inputs": [
        {
          "internalType": "address",
          "name": "account",
          "type": "address"
        }
      ],
      "name": "OwnableUnauthorizedAccount",
      "type": "error"
    },
    {
      "anonymous": false,
      "inputs": [
        {
          "indexed": true,
          "internalType": "address",
          "name": "owner",
          "type": "address"
        },
        {
          "indexed": true,
          "internalType": "address",
          "name": "approved",
          "type": "address"
        },
        {
          "indexed": true,
          "internalType": "uint256",
          "name": "tokenId",
          "type": "uint256"
        }
      ],
      "name": "Approval",
      "type": "event"
    },
    {
      "anonymous": false,
      "inputs": [
        {
          "indexed": true,
          "internalType": "address",
          "name": "owner",
          "type": "address"
        },
        {
          "indexed": true,
          "internalType": "address",
          "name": "operator",
          "type": "address"
        },
        {
          "indexed": false,
          "internalType": "bool",
          "name": "approved",
          "type": "bool"
        }
      ],
      "name": "ApprovalForAll",
      "type": "event"
    },
    {
      "anonymous": false,
      "inputs": [
        {
          "indexed": true,
          "internalType": "address",
          "name": "previousOwner",
          "type": "address"
        },
        {
          "indexed": true,
          "internalType": "address",
          "name": "newOwner",
          "type": "address"
        }
      ],
      "name": "OwnershipTransferred",
      "type": "event"
    },
    {
      "anonymous": false,
      "inputs": [
        {
          "indexed": true,
          "internalType": "address",
          "name": "from",
          "type": "address"
        },
        {
          "indexed": true,
          "internalType": "address",
          "name": "to",
          "type": "address"
        },
        {
          "indexed": true,
          "internalType": "uint256",
          "name": "tokenId",
          "type": "uint256"
        }
      ],
      "name": "Transfer",
      "type": "event"
    },
    {
      "inputs": [
        {
          "internalType": "address",
          "name": "to",
          "type": "address"
        },
        {
          "internalType": "uint256",
          "name": "tokenId",
          "type": "uint256"
        }
      ],
      "name": "approve",
      "outputs": [],
      "stateMutability": "nonpayable",
      "type": "function"
    },
    {
      "inputs": [
        {
          "internalType": "address",
          "name": "owner",
          "type": "address"
        }
      ],
      "name": "balanceOf",
      "outputs": [
        {
          "internalType": "uint256",
          "name": "",
          "type": "uint256"
        }
      ],
      "stateMutability": "view",
      "type": "function"
    },
    {
      "inputs": [
        {
          "internalType": "uint256",
          "name": "",
          "type": "uint256"
        }
      ],
      "name": "certificates",
      "outputs": [
        {
          "internalType": "uint256",
          "name": "expirationTimestamp",
          "type": "uint256"
        },
        {
          "internalType": "bool",
          "name": "revoked",
          "type": "bool"
        },
        {
          "internalType": "string",
          "name": "metadataURI",
          "type": "string"
        }
      ],
      "stateMutability": "view",
      "type": "function"
    },
    {
      "inputs": [
        {
          "internalType": "uint256",
          "name": "tokenId",
          "type": "uint256"
        }
      ],
      "name": "getApproved",
      "outputs": [
        {
          "internalType": "address",
          "name": "",
          "type": "address"
        }
      ],
      "stateMutability": "view",
      "type": "function"
    },
    {
      "inputs": [
        {
          "internalType": "address",
          "name": "owner",
          "type": "address"
        },
        {
          "internalType": "address",
          "name": "operator",
          "type": "address"
        }
      ],
      "name": "isApprovedForAll",
      "outputs": [
        {
          "internalType": "bool",
          "name": "",
          "type": "bool"
        }
      ],
      "stateMutability": "view",
      "type": "function"
    },
    {
      "inputs": [
        {
          "internalType": "address",
          "name": "user",
          "type": "address"
        }
      ],
      "name": "isCertificateValid",
      "outputs": [
        {
          "internalType": "bool",
          "name": "",
          "type": "bool"
        }
      ],
      "stateMutability": "view",
      "type": "function"
    },
    {
      "inputs": [
        {
          "internalType": "address",
          "name": "recipient",
          "type": "address"
        },
        {
          "internalType": "uint256",
          "name": "expirationTimestamp",
          "type": "uint256"
        },
        {
          "internalType": "string",
          "name": "metadataURI",
          "type": "string"
        }
      ],
      "name": "issueCertificate",
      "outputs": [],
      "stateMutability": "nonpayable",
      "type": "function"
    },
    {
      "inputs": [],
      "name": "name",
      "outputs": [
        {
          "internalType": "string",
          "name": "",
          "type": "string"
        }
      ],
      "stateMutability": "view",
      "type": "function"
    },
    {
      "inputs": [],
      "name": "owner",
      "outputs": [
        {
          "internalType": "address",
          "name": "",
          "type": "address"
        }
      ],
      "stateMutability": "view",
      "type": "function"
    },
    {
      "inputs": [
        {
          "internalType": "uint256",
          "name": "tokenId",
          "type": "uint256"
        }
      ],
      "name": "ownerOf",
      "outputs": [
        {
          "internalType": "address",
          "name": "",
          "type": "address"
        }
      ],
      "stateMutability": "view",
      "type": "function"
    },
    {
      "inputs": [],
      "name": "renounceOwnership",
      "outputs": [],
      "stateMutability": "nonpayable",
      "type": "function"
    },
    {
      "inputs": [
        {
          "internalType": "address",
          "name": "user",
          "type": "address"
        }
      ],
      "name": "revokeCertificate",
      "outputs": [],
      "stateMutability": "nonpayable",
      "type": "function"
    },
    {
      "inputs": [
        {
          "internalType": "address",
          "name": "from",
          "type": "address"
        },
        {
          "internalType": "address",
          "name": "to",
          "type": "address"
        },
        {
          "internalType": "uint256",
          "name": "tokenId",
          "type": "uint256"
        }
      ],
      "name": "safeTransferFrom",
      "outputs": [],
      "stateMutability": "nonpayable",
      "type": "function"
    },
    {
      "inputs": [
        {
          "internalType": "address",
          "name": "from",
          "type": "address"
        },
        {
          "internalType": "address",
          "name": "to",
          "type": "address"
        },
        {
          "internalType": "uint256",
          "name": "tokenId",
          "type": "uint256"
        },
        {
          "internalType": "bytes",
          "name": "data",
          "type": "bytes"
        }
      ],
      "name": "safeTransferFrom",
      "outputs": [],
      "stateMutability": "nonpayable",
      "type": "function"
    },
    {
      "inputs": [
        {
          "internalType": "address",
          "name": "operator",
          "type": "address"
        },
        {
          "internalType": "bool",
          "name": "approved",
          "type": "bool"
        }
      ],
      "name": "setApprovalForAll",
      "outputs": [],
      "stateMutability": "nonpayable",
      "type": "function"
    },
    {
      "inputs": [
        {
          "internalType": "bytes4",
          "name": "interfaceId",
          "type": "bytes4"
        }
      ],
      "name": "supportsInterface",
      "outputs": [
        {
          "internalType": "bool",
          "name": "",
          "type": "bool"
        }
      ],
      "stateMutability": "view",
      "type": "function"
    },
    {
      "inputs": [],
      "name": "symbol",
      "outputs": [
        {
          "internalType": "string",
          "name": "",
          "type": "string"
        }
      ],
      "stateMutability": "view",
      "type": "function"
    },
    {
      "inputs": [
        {
          "internalType": "uint256",
          "name": "tokenId",
          "type": "uint256"
        }
      ],
      "name": "tokenURI",
      "outputs": [
        {
          "internalType": "string",
          "name": "",
          "type": "string"
        }
      ],
      "stateMutability": "view",
      "type": "function"
    },
    {
      "inputs": [
        {
          "internalType": "address",
          "name": "from",
          "type": "address"
        },
        {
          "internalType": "address",
          "name": "to",
          "type": "address"
        },
        {
          "internalType": "uint256",
          "name": "tokenId",
          "type": "uint256"
        }
      ],
      "name": "transferFrom",
      "outputs": [],
      "stateMutability": "nonpayable",
      "type": "function"
    },
    {
      "inputs": [
        {
          "internalType": "address",
          "name": "newOwner",
          "type": "address"
        }
      ],
      "name": "transferOwnership",
      "outputs": [],
      "stateMutability": "nonpayable",
      "type": "function"
    },
    {
      "inputs": [
        {
          "internalType": "address",
          "name": "",
          "type": "address"
        }
      ],
      "name": "userToCertId",
      "outputs": [
        {
          "internalType": "uint256",
          "name": "",
          "type": "uint256"
        }
      ],
      "stateMutability": "view",
      "type": "function"
    }
  ],
  "bytecode": "0x60806040523480156200001157600080fd5b50336040518060400160405280601381526020017f537570706c6965724365727469666963617465000000000000000000000000008152506040518060400160405280600581526020017f5343455254000000000000000000000000000000000000000000000000000000815250816000908162000090919062000472565b508060019081620000a2919062000472565b505050600073ffffffffffffffffffffffffffffffffffffffff168173ffffffffffffffffffffffffffffffffffffffff16036200011a5760006040517f1e4fbdf70000000000000000000000000000000000000000000000000000000081526004016200011191906200059e565b60405180910390fd5b6200012b816200013260201b60201c565b50620005bb565b6000600660009054906101000a900473ffffffffffffffffffffffffffffffffffffffff16905081600660006101000a81548173ffffffffffffffffffffffffffffffffffffffff021916908373ffffffffffffffffffffffffffffffffffffffff1602179055508173ffffffffffffffffffffffffffffffffffffffff168173ffffffffffffffffffffffffffffffffffffffff167f8be0079c531659141344cd1fd0a4f28419497f9722a3daafe3b4186f6b6457e060405160405180910390a35050565b600081519050919050565b7f4e487b7100000000000000000000000000000000000000000000000000000000600052604160045260246000fd5b7f4e487b7100000000000000000000000000000000000000000000000000000000600052602260045260246000fd5b600060028204905060018216806200027a57607f821691505b60208210810362000290576200028f62000232565b5b50919050565b60008190508160005260206000209050919050565b60006020601f8301049050919050565b600082821b905092915050565b600060088302620002fa7fffffffffffffffffffffffffffffffffffffffffffffffffffffffffffffffff82620002bb565b620003068683620002bb565b95508019841693508086168417925050509392505050565b6000819050919050565b6000819050919050565b6000620003536200034d62000347846200031e565b62000328565b6200031e565b9050919050565b6000819050919050565b6200036f8362000332565b620003876200037e826200035a565b848454620002c8565b825550505050565b600090565b6200039e6200038f565b620003ab81848462000364565b505050565b5b81811015620003d357620003c760008262000394565b600181019050620003b1565b5050565b601f8211156200042257620003ec8162000296565b620003f784620002ab565b8101602085101562000407578190505b6200041f6200041685620002ab565b830182620003b0565b50505b505050565b600082821c905092915050565b6000620004476000198460080262000427565b1980831691505092915050565b600062000462838362000434565b9150826002028217905092915050565b6200047d82620001f8565b67ffffffffffffffff81111562000499576200049862000203565b5b620004a5825462000261565b620004b2828285620003d7565b600060209050601f831160018114620004ea5760008415620004d5578287015190505b620004e1858262000454565b86555062000551565b601f198416620004fa8662000296565b60005b828110156200052457848901518255600182019150602085019450602081019050620004fd565b8683101562000544578489015162000540601f89168262000434565b8355505b6001600288020188555050505b505050505050565b600073ffffffffffffffffffffffffffffffffffffffff82169050919050565b6000620005868262000559565b9050919050565b620005988162000579565b82525050565b6000602082019050620005b560008301846200058d565b92915050565b612ad180620005cb6000396000f3fe608060405234801561001057600080fd5b50600436106101375760003560e01c80636352211e116100b857806395d89b411161007c57806395d89b4114610360578063a22cb4651461037e578063b88d4fde1461039a578063c87b56dd146103b6578063e985e9c5146103e6578063f2fde38b1461041657610137565b80636352211e146102a6578063663b3e22146102d657806370a0823114610308578063715018a6146103385780638da5cb5b1461034257610137565b80630ce51f56116100ff5780630ce51f561461020657806323b872dd1461022257806342842e0e1461023e578063521e42c31461025a5780635f893bfa1461028a57610137565b806301ffc9a71461013c57806306fdde031461016c578063081812fc1461018a578063095ea7b3146101ba5780630c81989e146101d6575b600080fd5b61015660048036038101906101519190611dcd565b610432565b6040516101639190611e15565b60405180910390f35b610174610514565b6040516101819190611ec0565b60405180910390f35b6101a4600480360381019061019f9190611f18565b6105a6565b6040516101b19190611f86565b60405180910390f35b6101d460048036038101906101cf9190611fcd565b6105c2565b005b6101f060048036038101906101eb919061200d565b6105d8565b6040516101fd9190612049565b60405180910390f35b610220600480360381019061021b91906120c9565b6105f0565b005b61023c6004803603810190610237919061213d565b6107a6565b005b6102586004803603810190610253919061213d565b6108a8565b005b610274600480360381019061026f919061200d565b6108c8565b6040516102819190611e15565b60405180910390f35b6102a4600480360381019061029f919061200d565b610a75565b005b6102c060048036038101906102bb9190611f18565b610b37565b6040516102cd9190611f86565b60405180910390f35b6102f060048036038101906102eb9190611f18565b610b49565b6040516102ff93929190612190565b60405180910390f35b610322600480360381019061031d919061200d565b610c08565b60405161032f9190612049565b60405180910390f35b610340610cc2565b005b61034a610cd6565b6040516103579190611f86565b60405180910390f35b610368610d00565b6040516103759190611ec0565b60405180910390f35b610398600480360381019061039391906121fa565b610d92565b005b6103b460048036038101906103af919061236a565b610da8565b005b6103d060048036038101906103cb9190611f18565b610dcd565b6040516103dd9190611ec0565b60405180910390f35b61040060048036038101906103fb91906123ed565b610eec565b60405161040d9190611e15565b60405180910390f35b610430600480360381019061042b919061200d565b610f80565b005b60007f80ac58cd000000000000000000000000000000000000000000000000000000007bffffffffffffffffffffffffffffffffffffffffffffffffffffffff1916827bffffffffffffffffffffffffffffffffffffffffffffffffffffffff191614806104fd57507f5b5e139f000000000000000000000000000000000000000000000000000000007bffffffffffffffffffffffffffffffffffffffffffffffffffffffff1916827bffffffffffffffffffffffffffffffffffffffffffffffffffffffff1916145b8061050d575061050c82611006565b5b9050919050565b6060600080546105239061245c565b80601f016020809104026020016040519081016040528092919081815260200182805461054f9061245c565b801561059c5780601f106105715761010080835404028352916020019161059c565b820191906000526020600020905b81548152906001019060200180831161057f57829003601f168201915b5050505050905090565b60006105b182611070565b506105bb826110f8565b9050919050565b6105d482826105cf611135565b61113d565b5050565b60086020528060005260406000206000915090505481565b6105f861114f565b6000600860008673ffffffffffffffffffffffffffffffffffffffff1673ffffffffffffffffffffffffffffffffffffffff168152602001908152602001600020541461067a576040517f08c379a0000000000000000000000000000000000000000000000000000000008152600401610671906124d9565b60405180910390fd5b6009600081548092919061068d90612528565b9190505550600060095490506106a385826111d6565b604051806060016040528085815260200160001515815260200184848080601f016020809104026020016040519081016040528093929190818152602001838380828437600081840152601f19601f82011690508083019250505050505050815250600760008381526020019081526020016000206000820151816000015560208201518160010160006101000a81548160ff0219169083151502179055506040820151816002019081610757919061271c565b5090505080600860008773ffffffffffffffffffffffffffffffffffffffff1673ffffffffffffffffffffffffffffffffffffffff168152602001908152602001600020819055505050505050565b600073ffffffffffffffffffffffffffffffffffffffff168273ffffffffffffffffffffffffffffffffffffffff16036108185760006040517f64a0ae9200000000000000000000000000000000000000000000000000000000815260040161080f9190611f86565b60405180910390fd5b600061082c8383610827611135565b6111f4565b90508373ffffffffffffffffffffffffffffffffffffffff168173ffffffffffffffffffffffffffffffffffffffff16146108a2578382826040517f64283d7b000000000000000000000000000000000000000000000000000000008152600401610899939291906127ee565b60405180910390fd5b50505050565b6108c383838360405180602001604052806000815250610da8565b505050565b600080600860008473ffffffffffffffffffffffffffffffffffffffff1673ffffffffffffffffffffffffffffffffffffffff1681526020019081526020016000205490506000810361091f576000915050610a70565b600060076000838152602001908152602001600020604051806060016040529081600082015481526020016001820160009054906101000a900460ff161515151581526020016002820180546109749061245c565b80601f01602080910402602001604051908101604052809291908181526020018280546109a09061245c565b80156109ed5780601f106109c2576101008083540402835291602001916109ed565b820191906000526020600020905b8154815290600101906020018083116109d057829003601f168201915b5050505050815250509050806020015115610a0d57600092505050610a70565b60008160000151118015610a245750806000015142115b15610a3457600092505050610a70565b8373ffffffffffffffffffffffffffffffffffffffff16610a5483610b37565b73ffffffffffffffffffffffffffffffffffffffff1614925050505b919050565b610a7d61114f565b6000600860008373ffffffffffffffffffffffffffffffffffffffff1673ffffffffffffffffffffffffffffffffffffffff16815260200190815260200160002054905060008103610b04576040517f08c379a0000000000000000000000000000000000000000000000000000000008152600401610afb90612871565b60405180910390fd5b60016007600083815260200190815260200160002060010160006101000a81548160ff0219169083151502179055505050565b6000610b4282611070565b9050919050565b60076020528060005260406000206000915090508060000154908060010160009054906101000a900460ff1690806002018054610b859061245c565b80601f0160208091040260200160405190810160405280929190818152602001828054610bb19061245c565b8015610bfe5780601f10610bd357610100808354040283529160200191610bfe565b820191906000526020600020905b815481529060010190602001808311610be157829003601f168201915b5050505050905083565b60008073ffffffffffffffffffffffffffffffffffffffff168273ffffffffffffffffffffffffffffffffffffffff1603610c7b5760006040517f89c62b64000000000000000000000000000000000000000000000000000000008152600401610c729190611f86565b60405180910390fd5b600360008373ffffffffffffffffffffffffffffffffffffffff1673ffffffffffffffffffffffffffffffffffffffff168152602001908152602001600020549050919050565b610cca61114f565b610cd460006112bd565b565b6000600660009054906101000a900473ffffffffffffffffffffffffffffffffffffffff16905090565b606060018054610d0f9061245c565b80601f0160208091040260200160405190810160405280929190818152602001828054610d3b9061245c565b8015610d885780601f10610d5d57610100808354040283529160200191610d88565b820191906000526020600020905b815481529060010190602001808311610d6b57829003601f168201915b5050505050905090565b610da4610d9d611135565b8383611383565b5050565b610db38484846107a6565b610dc7610dbe611135565b858585856114f2565b50505050565b6060600073ffffffffffffffffffffffffffffffffffffffff16610df0836116a3565b73ffffffffffffffffffffffffffffffffffffffff1603610e46576040517f08c379a0000000000000000000000000000000000000000000000000000000008152600401610e3d906128dd565b60405180910390fd5b600760008381526020019081526020016000206002018054610e679061245c565b80601f0160208091040260200160405190810160405280929190818152602001828054610e939061245c565b8015610ee05780601f10610eb557610100808354040283529160200191610ee0565b820191906000526020600020905b815481529060010190602001808311610ec357829003601f168201915b50505050509050919050565b6000600560008473ffffffffffffffffffffffffffffffffffffffff1673ffffffffffffffffffffffffffffffffffffffff16815260200190815260200160002060008373ffffffffffffffffffffffffffffffffffffffff1673ffffffffffffffffffffffffffffffffffffffff16815260200190815260200160002060009054906101000a900460ff16905092915050565b610f8861114f565b600073ffffffffffffffffffffffffffffffffffffffff168173ffffffffffffffffffffffffffffffffffffffff1603610ffa5760006040517f1e4fbdf7000000000000000000000000000000000000000000000000000000008152600401610ff19190611f86565b60405180910390fd5b611003816112bd565b50565b60007f01ffc9a7000000000000000000000000000000000000000000000000000000007bffffffffffffffffffffffffffffffffffffffffffffffffffffffff1916827bffffffffffffffffffffffffffffffffffffffffffffffffffffffff1916149050919050565b60008061107c836116a3565b9050600073ffffffffffffffffffffffffffffffffffffffff168173ffffffffffffffffffffffffffffffffffffffff16036110ef57826040517f7e2732890000000000000000000000000000000000000000000000000000000081526004016110e69190612049565b60405180910390fd5b80915050919050565b60006004600083815260200190815260200160002060009054906101000a900473ffffffffffffffffffffffffffffffffffffffff169050919050565b600033905090565b61114a83838360016116e0565b505050565b611157611135565b73ffffffffffffffffffffffffffffffffffffffff16611175610cd6565b73ffffffffffffffffffffffffffffffffffffffff16146111d457611198611135565b6040517f118cdaa70000000000000000000000000000000000000000000000000000000081526004016111cb9190611f86565b60405180910390fd5b565b6111f08282604051806020016040528060008152506118a5565b5050565b600080611200846116a3565b9050600073ffffffffffffffffffffffffffffffffffffffff168173ffffffffffffffffffffffffffffffffffffffff1614806112695750600073ffffffffffffffffffffffffffffffffffffffff168573ffffffffffffffffffffffffffffffffffffffff16145b6112a8576040517f08c379a000000000000000000000000000000000000000000000000000000000815260040161129f9061296f565b60405180910390fd5b6112b38585856118c9565b9150509392505050565b6000600660009054906101000a900473ffffffffffffffffffffffffffffffffffffffff16905081600660006101000a81548173ffffffffffffffffffffffffffffffffffffffff021916908373ffffffffffffffffffffffffffffffffffffffff1602179055508173ffffffffffffffffffffffffffffffffffffffff168173ffffffffffffffffffffffffffffffffffffffff167f8be0079c531659141344cd1fd0a4f28419497f9722a3daafe3b4186f6b6457e060405160405180910390a35050565b600073ffffffffffffffffffffffffffffffffffffffff168273ffffffffffffffffffffffffffffffffffffffff16036113f457816040517f5b08ba180000000000000000000000000000000000000000000000000000000081526004016113eb9190611f86565b60405180910390fd5b80600560008573ffffffffffffffffffffffffffffffffffffffff1673ffffffffffffffffffffffffffffffffffffffff16815260200190815260200160002060008473ffffffffffffffffffffffffffffffffffffffff1673ffffffffffffffffffffffffffffffffffffffff16815260200190815260200160002060006101000a81548160ff0219169083151502179055508173ffffffffffffffffffffffffffffffffffffffff168373ffffffffffffffffffffffffffffffffffffffff167f17307eab39ab6107e8899845ad3d59bd9653f200f220920489ca2b5937696c31836040516114e59190611e15565b60405180910390a3505050565b60008373ffffffffffffffffffffffffffffffffffffffff163b111561169c578273ffffffffffffffffffffffffffffffffffffffff1663150b7a02868685856040518563ffffffff1660e01b815260040161155194939291906129e4565b6020604051808303816000875af192505050801561158d57506040513d601f19601f8201168201806040525081019061158a9190612a45565b60015b611611573d80600081146115bd576040519150601f19603f3d011682016040523d82523d6000602084013e6115c2565b606091505b50600081510361160957836040517f64a0ae920000000000000000000000000000000000000000000000000000000081526004016116009190611f86565b60405180910390fd5b805160208201fd5b63150b7a0260e01b7bffffffffffffffffffffffffffffffffffffffffffffffffffffffff1916817bffffffffffffffffffffffffffffffffffffffffffffffffffffffff19161461169a57836040517f64a0ae920000000000000000000000000000000000000000000000000000000081526004016116919190611f86565b60405180910390fd5b505b5050505050565b60006002600083815260200190815260200160002060009054906101000a900473ffffffffffffffffffffffffffffffffffffffff169050919050565b80806117195750600073ffffffffffffffffffffffffffffffffffffffff168273ffffffffffffffffffffffffffffffffffffffff1614155b1561184d57600061172984611070565b9050600073ffffffffffffffffffffffffffffffffffffffff168373ffffffffffffffffffffffffffffffffffffffff161415801561179457508273ffffffffffffffffffffffffffffffffffffffff168173ffffffffffffffffffffffffffffffffffffffff1614155b80156117a757506117a58184610eec565b155b156117e957826040517fa9fbf51f0000000000000000000000000000000000000000000000000000000081526004016117e09190611f86565b60405180910390fd5b811561184b57838573ffffffffffffffffffffffffffffffffffffffff168273ffffffffffffffffffffffffffffffffffffffff167f8c5be1e5ebec7d5bd14f71427d1e84f3dd0314c0f7b2291e5b200ac8c7c3b92560405160405180910390a45b505b836004600085815260200190815260200160002060006101000a81548173ffffffffffffffffffffffffffffffffffffffff021916908373ffffffffffffffffffffffffffffffffffffffff16021790555050505050565b6118af8383611ae3565b6118c46118ba611135565b60008585856114f2565b505050565b6000806118d5846116a3565b9050600073ffffffffffffffffffffffffffffffffffffffff168373ffffffffffffffffffffffffffffffffffffffff161461191757611916818486611bdc565b5b600073ffffffffffffffffffffffffffffffffffffffff168173ffffffffffffffffffffffffffffffffffffffff16146119a8576119596000856000806116e0565b6001600360008373ffffffffffffffffffffffffffffffffffffffff1673ffffffffffffffffffffffffffffffffffffffff168152602001908152602001600020600082825403925050819055505b600073ffffffffffffffffffffffffffffffffffffffff168573ffffffffffffffffffffffffffffffffffffffff1614611a2b576001600360008773ffffffffffffffffffffffffffffffffffffffff1673ffffffffffffffffffffffffffffffffffffffff168152602001908152602001600020600082825401925050819055505b846002600086815260200190815260200160002060006101000a81548173ffffffffffffffffffffffffffffffffffffffff021916908373ffffffffffffffffffffffffffffffffffffffff160217905550838573ffffffffffffffffffffffffffffffffffffffff168273ffffffffffffffffffffffffffffffffffffffff167fddf252ad1be2c89b69c2b068fc378daa952ba7f163c4a11628f55a4df523b3ef60405160405180910390a4809150509392505050565b600073ffffffffffffffffffffffffffffffffffffffff168273ffffffffffffffffffffffffffffffffffffffff1603611b555760006040517f64a0ae92000000000000000000000000000000000000000000000000000000008152600401611b4c9190611f86565b60405180910390fd5b6000611b63838360006111f4565b9050600073ffffffffffffffffffffffffffffffffffffffff168173ffffffffffffffffffffffffffffffffffffffff1614611bd75760006040517f73c6ac6e000000000000000000000000000000000000000000000000000000008152600401611bce9190611f86565b60405180910390fd5b505050565b611be7838383611ca0565b611c9b57600073ffffffffffffffffffffffffffffffffffffffff168373ffffffffffffffffffffffffffffffffffffffff1603611c5c57806040517f7e273289000000000000000000000000000000000000000000000000000000008152600401611c539190612049565b60405180910390fd5b81816040517f177e802f000000000000000000000000000000000000000000000000000000008152600401611c92929190612a72565b60405180910390fd5b505050565b60008073ffffffffffffffffffffffffffffffffffffffff168373ffffffffffffffffffffffffffffffffffffffff1614158015611d5857508273ffffffffffffffffffffffffffffffffffffffff168473ffffffffffffffffffffffffffffffffffffffff161480611d195750611d188484610eec565b5b80611d5757508273ffffffffffffffffffffffffffffffffffffffff16611d3f836110f8565b73ffffffffffffffffffffffffffffffffffffffff16145b5b90509392505050565b6000604051905090565b600080fd5b600080fd5b60007fffffffff0000000000000000000000000000000000000000000000000000000082169050919050565b611daa81611d75565b8114611db557600080fd5b50565b600081359050611dc781611da1565b92915050565b600060208284031215611de357611de2611d6b565b5b6000611df184828501611db8565b91505092915050565b60008115159050919050565b611e0f81611dfa565b82525050565b6000602082019050611e2a6000830184611e06565b92915050565b600081519050919050565b600082825260208201905092915050565b60005b83811015611e6a578082015181840152602081019050611e4f565b60008484015250505050565b6000601f19601f8301169050919050565b6000611e9282611e30565b611e9c8185611e3b565b9350611eac818560208601611e4c565b611eb581611e76565b840191505092915050565b60006020820190508181036000830152611eda8184611e87565b905092915050565b6000819050919050565b611ef581611ee2565b8114611f0057600080fd5b50565b600081359050611f1281611eec565b92915050565b600060208284031215611f2e57611f2d611d6b565b5b6000611f3c84828501611f03565b91505092915050565b600073ffffffffffffffffffffffffffffffffffffffff82169050919050565b6000611f7082611f45565b9050919050565b611f8081611f65565b82525050565b6000602082019050611f9b6000830184611f77565b92915050565b611faa81611f65565b8114611fb557600080fd5b50565b600081359050611fc781611fa1565b92915050565b60008060408385031215611fe457611fe3611d6b565b5b6000611ff285828601611fb8565b925050602061200385828601611f03565b9150509250929050565b60006020828403121561202357612022611d6b565b5b600061203184828501611fb8565b91505092915050565b61204381611ee2565b82525050565b600060208201905061205e600083018461203a565b92915050565b600080fd5b600080fd5b600080fd5b60008083601f84011261208957612088612064565b5b8235905067ffffffffffffffff8111156120a6576120a5612069565b5b6020830191508360018202830111156120c2576120c161206e565b5b9250929050565b600080600080606085870312156120e3576120e2611d6b565b5b60006120f187828801611fb8565b945050602061210287828801611f03565b935050604085013567ffffffffffffffff81111561212357612122611d70565b5b61212f87828801612073565b925092505092959194509250565b60008060006060848603121561215657612155611d6b565b5b600061216486828701611fb8565b935050602061217586828701611fb8565b925050604061218686828701611f03565b9150509250925092565b60006060820190506121a5600083018661203a565b6121b26020830185611e06565b81810360408301526121c48184611e87565b9050949350505050565b6121d781611dfa565b81146121e257600080fd5b50565b6000813590506121f4816121ce565b92915050565b6000806040838503121561221157612210611d6b565b5b600061221f85828601611fb8565b9250506020612230858286016121e5565b9150509250929050565b600080fd5b7f4e487b7100000000000000000000000000000000000000000000000000000000600052604160045260246000fd5b61227782611e76565b810181811067ffffffffffffffff821117156122965761229561223f565b5b80604052505050565b60006122a9611d61565b90506122b5828261226e565b919050565b600067ffffffffffffffff8211156122d5576122d461223f565b5b6122de82611e76565b9050602081019050919050565b82818337600083830152505050565b600061230d612308846122ba565b61229f565b9050828152602081018484840111156123295761232861223a565b5b6123348482856122eb565b509392505050565b600082601f83011261235157612350612064565b5b81356123618482602086016122fa565b91505092915050565b6000806000806080858703121561238457612383611d6b565b5b600061239287828801611fb8565b94505060206123a387828801611fb8565b93505060406123b487828801611f03565b925050606085013567ffffffffffffffff8111156123d5576123d4611d70565b5b6123e18782880161233c565b91505092959194509250565b6000806040838503121561240457612403611d6b565b5b600061241285828601611fb8565b925050602061242385828601611fb8565b9150509250929050565b7f4e487b7100000000000000000000000000000000000000000000000000000000600052602260045260246000fd5b6000600282049050600182168061247457607f821691505b6020821081036124875761248661242d565b5b50919050565b7f5573657220616c72656164792068617320612063657274696669636174650000600082015250565b60006124c3601e83611e3b565b91506124ce8261248d565b602082019050919050565b600060208201905081810360008301526124f2816124b6565b9050919050565b7f4e487b7100000000000000000000000000000000000000000000000000000000600052601160045260246000fd5b600061253382611ee2565b91507fffffffffffffffffffffffffffffffffffffffffffffffffffffffffffffffff8203612565576125646124f9565b5b600182019050919050565b60008190508160005260206000209050919050565b60006020601f8301049050919050565b600082821b905092915050565b6000600883026125d27fffffffffffffffffffffffffffffffffffffffffffffffffffffffffffffffff82612595565b6125dc8683612595565b95508019841693508086168417925050509392505050565b6000819050919050565b600061261961261461260f84611ee2565b6125f4565b611ee2565b9050919050565b6000819050919050565b612633836125fe565b61264761263f82612620565b8484546125a2565b825550505050565b600090565b61265c61264f565b61266781848461262a565b505050565b5b8181101561268b57612680600082612654565b60018101905061266d565b5050565b601f8211156126d0576126a181612570565b6126aa84612585565b810160208510156126b9578190505b6126cd6126c585612585565b83018261266c565b50505b505050565b600082821c905092915050565b60006126f3600019846008026126d5565b1980831691505092915050565b600061270c83836126e2565b9150826002028217905092915050565b61272582611e30565b67ffffffffffffffff81111561273e5761273d61223f565b5b612748825461245c565b61275382828561268f565b600060209050601f8311600181146127865760008415612774578287015190505b61277e8582612700565b8655506127e6565b601f19841661279486612570565b60005b828110156127bc57848901518255600182019150602085019450602081019050612797565b868310156127d957848901516127d5601f8916826126e2565b8355505b6001600288020188555050505b505050505050565b60006060820190506128036000830186611f77565b612810602083018561203a565b61281d6040830184611f77565b949350505050565b7f4e6f20636572746966696361746520666f756e64000000000000000000000000600082015250565b600061285b601483611e3b565b915061286682612825565b602082019050919050565b6000602082019050818103600083015261288a8161284e565b9050919050565b7f55524920717565727920666f72206e6f6e6578697374656e7420746f6b656e00600082015250565b60006128c7601f83611e3b565b91506128d282612891565b602082019050919050565b600060208201905081810360008301526128f6816128ba565b9050919050565b7f43657274696669636174653a20736f756c626f756e642c2063616e6e6f74207460008201527f72616e7366657200000000000000000000000000000000000000000000000000602082015250565b6000612959602783611e3b565b9150612964826128fd565b604082019050919050565b600060208201905081810360008301526129888161294c565b9050919050565b600081519050919050565b600082825260208201905092915050565b60006129b68261298f565b6129c0818561299a565b93506129d0818560208601611e4c565b6129d981611e76565b840191505092915050565b60006080820190506129f96000830187611f77565b612a066020830186611f77565b612a13604083018561203a565b8181036060830152612a2581846129ab565b905095945050505050565b600081519050612a3f81611da1565b92915050565b600060208284031215612a5b57612a5a611d6b565b5b6000612a6984828501612a30565b91505092915050565b6000604082019050612a876000830185611f77565b612a94602083018461203a565b939250505056fea264697066735822122000f0c206a5890face8c1890ef1882ee9b70382aa607a799747fadf6f3d77b8bd64736f6c63430008140033",
  "linkReferences": {},
  "deployedLinkReferences": {}
}