{
  "_format": "hh-sol-artifact-1",
  "contractName": "Marketplace",
  "sourceName": "contracts/Marketplace.sol",
  "abi": [
    {
      "inputs": [],
      "stateMutability": "nonpayable",
      "type": "constructor"
    },
    {
      "inputs": [
        {
          "internalType": "address",
          "name": "owner",
          "type": "address"
        }
      ],
      "name": "OwnableInvalidOwner",
      "type": "error"
    },
    {
      "inputs": [
        {
          "internalType": "address",
          "name": "account",
          "type": "address"
        }
      ],
      "name": "OwnableUnauthorizedAccount",
      "type": "error"
    },
    {
      "anonymous": false,
      "inputs": [
        {
          "indexed": true,
          "internalType": "address",
          "name": "seller",
          "type": "address"
        },
        {
          "indexed": true,
          "internalType": "address",
          "name": "nftContract",
          "type": "address"
        },
        {
          "indexed": true,
          "internalType": "uint256",
          "name": "tokenId",
          "type": "uint256"
        }
      ],
      "name": "Cancelled",
      "type": "event"
    },
    {
      "anonymous": false,
      "inputs": [
        {
          "indexed": true,
          "internalType": "address",
          "name": "seller",
          "type": "address"
        },
        {
          "indexed": true,
          "internalType": "address",
          "name": "nftContract",
          "type": "address"
        },
        {
          "indexed": true,
          "internalType": "uint256",
          "name": "tokenId",
          "type": "uint256"
        },
        {
          "indexed": false,
          "internalType": "uint256",
          "name": "price",
          "type": "uint256"
        }
      ],
      "name": "Listed",
      "type": "event"
    },
    {
      "anonymous": false,
      "inputs": [
        {
          "indexed": true,
          "internalType": "address",
          "name": "previousOwner",
          "type": "address"
        },
        {
          "indexed": true,
          "internalType": "address",
          "name": "newOwner",
          "type": "address"
        }
      ],
      "name": "OwnershipTransferred",
      "type": "event"
    },
    {
      "anonymous": false,
      "inputs": [
        {
          "indexed": true,
          "internalType": "address",
          "name": "buyer",
          "type": "address"
        },
        {
          "indexed": true,
          "internalType": "address",
          "name": "nftContract",
          "type": "address"
        },
        {
          "indexed": true,
          "internalType": "uint256",
          "name": "tokenId",
          "type": "uint256"
        },
        {
          "indexed": false,
          "internalType": "uint256",
          "name": "price",
          "type": "uint256"
        }
      ],
      "name": "Sold",
      "type": "event"
    },
    {
      "inputs": [
        {
          "internalType": "address",
          "name": "nftContract",
          "type": "address"
        },
        {
          "internalType": "uint256",
          "name": "tokenId",
          "type": "uint256"
        }
      ],
      "name": "buyNFT",
      "outputs": [],
      "stateMutability": "payable",
      "type": "function"
    },
    {
      "inputs": [
        {
          "internalType": "address",
          "name": "nftContract",
          "type": "address"
        },
        {
          "internalType": "uint256",
          "name": "tokenId",
          "type": "uint256"
        }
      ],
      "name": "cancelListing",
      "outputs": [],
      "stateMutability": "nonpayable",
      "type": "function"
    },
    {
      "inputs": [
        {
          "internalType": "address",
          "name": "nftContract",
          "type": "address"
        },
        {
          "internalType": "uint256",
          "name": "tokenId",
          "type": "uint256"
        }
      ],
      "name": "getListing",
      "outputs": [
        {
          "components": [
            {
              "internalType": "address",
              "name": "seller",
              "type": "address"
            },
            {
              "internalType": "address",
              "name": "nftContract",
              "type": "address"
            },
            {
              "internalType": "uint256",
              "name": "tokenId",
              "type": "uint256"
            },
            {
              "internalType": "uint256",
              "name": "price",
              "type": "uint256"
            },
            {
              "internalType": "bool",
              "name": "active",
              "type": "bool"
            }
          ],
          "internalType": "struct Marketplace.tokenListing",
          "name": "",
          "type": "tuple"
        }
      ],
      "stateMutability": "view",
      "type": "function"
    },
    {
      "inputs": [
        {
          "internalType": "address",
          "name": "nftContract",
          "type": "address"
        },
        {
          "internalType": "uint256",
          "name": "tokenId",
          "type": "uint256"
        },
        {
          "internalType": "uint256",
          "name": "price",
          "type": "uint256"
        }
      ],
      "name": "listNFT",
      "outputs": [],
      "stateMutability": "nonpayable",
      "type": "function"
    },
    {
      "inputs": [
        {
          "internalType": "address",
          "name": "",
          "type": "address"
        },
        {
          "internalType": "uint256",
          "name": "",
          "type": "uint256"
        }
      ],
      "name": "listings",
      "outputs": [
        {
          "internalType": "address",
          "name": "seller",
          "type": "address"
        },
        {
          "internalType": "address",
          "name": "nftContract",
          "type": "address"
        },
        {
          "internalType": "uint256",
          "name": "tokenId",
          "type": "uint256"
        },
        {
          "internalType": "uint256",
          "name": "price",
          "type": "uint256"
        },
        {
          "internalType": "bool",
          "name": "active",
          "type": "bool"
        }
      ],
      "stateMutability": "view",
      "type": "function"
    },
    {
      "inputs": [],
      "name": "owner",
      "outputs": [
        {
          "internalType": "address",
          "name": "",
          "type": "address"
        }
      ],
      "stateMutability": "view",
      "type": "function"
    },
    {
      "inputs": [],
      "name": "renounceOwnership",
      "outputs": [],
      "stateMutability": "nonpayable",
      "type": "function"
    },
    {
      "inputs": [
        {
          "internalType": "address",
          "name": "newOwner",
          "type": "address"
        }
      ],
      "name": "transferOwnership",
      "outputs": [],
      "stateMutability": "nonpayable",
      "type": "function"
    }
  ],
  "bytecode": "0x60806040523480156200001157600080fd5b5033600073ffffffffffffffffffffffffffffffffffffffff168173ffffffffffffffffffffffffffffffffffffffff1603620000885760006040517f1e4fbdf70000000000000000000000000000000000000000000000000000000081526004016200007f9190620001a9565b60405180910390fd5b6200009981620000a060201b60201c565b50620001c6565b60008060009054906101000a900473ffffffffffffffffffffffffffffffffffffffff169050816000806101000a81548173ffffffffffffffffffffffffffffffffffffffff021916908373ffffffffffffffffffffffffffffffffffffffff1602179055508173ffffffffffffffffffffffffffffffffffffffff168173ffffffffffffffffffffffffffffffffffffffff167f8be0079c531659141344cd1fd0a4f28419497f9722a3daafe3b4186f6b6457e060405160405180910390a35050565b600073ffffffffffffffffffffffffffffffffffffffff82169050919050565b6000620001918262000164565b9050919050565b620001a38162000184565b82525050565b6000602082019050620001c0600083018462000198565b92915050565b6115be80620001d66000396000f3fe60806040526004361061007a5760003560e01c8063a82ba76f1161004e578063a82ba76f1461013f578063ad05f1b41461015b578063b2ddee0614610184578063f2fde38b146101ad5761007a565b806207df301461007f578063715018a6146100c057806388700d1c146100d75780638da5cb5b14610114575b600080fd5b34801561008b57600080fd5b506100a660048036038101906100a19190610f56565b6101d6565b6040516100b7959493929190610fcf565b60405180910390f35b3480156100cc57600080fd5b506100d5610266565b005b3480156100e357600080fd5b506100fe60048036038101906100f99190610f56565b61027a565b60405161010b91906110b7565b60405180910390f35b34801561012057600080fd5b506101296103c0565b60405161013691906110d2565b60405180910390f35b61015960048036038101906101549190610f56565b6103e9565b005b34801561016757600080fd5b50610182600480360381019061017d91906110ed565b610663565b005b34801561019057600080fd5b506101ab60048036038101906101a69190610f56565b610ad3565b005b3480156101b957600080fd5b506101d460048036038101906101cf9190611140565b610c87565b005b6001602052816000526040600020602052806000526040600020600091509150508060000160009054906101000a900473ffffffffffffffffffffffffffffffffffffffff16908060010160009054906101000a900473ffffffffffffffffffffffffffffffffffffffff16908060020154908060030154908060040160009054906101000a900460ff16905085565b61026e610d0d565b6102786000610d94565b565b610282610e60565b600160008473ffffffffffffffffffffffffffffffffffffffff1673ffffffffffffffffffffffffffffffffffffffff16815260200190815260200160002060008381526020019081526020016000206040518060a00160405290816000820160009054906101000a900473ffffffffffffffffffffffffffffffffffffffff1673ffffffffffffffffffffffffffffffffffffffff1673ffffffffffffffffffffffffffffffffffffffff1681526020016001820160009054906101000a900473ffffffffffffffffffffffffffffffffffffffff1673ffffffffffffffffffffffffffffffffffffffff1673ffffffffffffffffffffffffffffffffffffffff16815260200160028201548152602001600382015481526020016004820160009054906101000a900460ff161515151581525050905092915050565b60008060009054906101000a900473ffffffffffffffffffffffffffffffffffffffff16905090565b6000600160008473ffffffffffffffffffffffffffffffffffffffff1673ffffffffffffffffffffffffffffffffffffffff168152602001908152602001600020600083815260200190815260200160002090508060040160009054906101000a900460ff1661048e576040517f08c379a0000000000000000000000000000000000000000000000000000000008152600401610485906111ca565b60405180910390fd5b80600301543410156104d5576040517f08c379a00000000000000000000000000000000000000000000000000000000081526004016104cc90611236565b60405180910390fd5b60008160040160006101000a81548160ff0219169083151502179055508060000160009054906101000a900473ffffffffffffffffffffffffffffffffffffffff1673ffffffffffffffffffffffffffffffffffffffff166108fc82600301549081150290604051600060405180830381858888f19350505050158015610560573d6000803e3d6000fd5b508273ffffffffffffffffffffffffffffffffffffffff166342842e0e8260000160009054906101000a900473ffffffffffffffffffffffffffffffffffffffff1633856040518463ffffffff1660e01b81526004016105c293929190611256565b600060405180830381600087803b1580156105dc57600080fd5b505af11580156105f0573d6000803e3d6000fd5b50505050818373ffffffffffffffffffffffffffffffffffffffff163373ffffffffffffffffffffffffffffffffffffffff167f16dd16959a056953a63cf14bf427881e762e54f03d86b864efea8238dd3b822f8460030154604051610656919061128d565b60405180910390a4505050565b600081116106a6576040517f08c379a000000000000000000000000000000000000000000000000000000000815260040161069d906112f4565b60405180910390fd5b60008390503373ffffffffffffffffffffffffffffffffffffffff168173ffffffffffffffffffffffffffffffffffffffff16636352211e856040518263ffffffff1660e01b81526004016106fb919061128d565b602060405180830381865afa158015610718573d6000803e3d6000fd5b505050506040513d601f19601f8201168201806040525081019061073c9190611329565b73ffffffffffffffffffffffffffffffffffffffff1614610792576040517f08c379a0000000000000000000000000000000000000000000000000000000008152600401610789906113a2565b60405180910390fd5b3073ffffffffffffffffffffffffffffffffffffffff168473ffffffffffffffffffffffffffffffffffffffff1663081812fc856040518263ffffffff1660e01b81526004016107e2919061128d565b602060405180830381865afa1580156107ff573d6000803e3d6000fd5b505050506040513d601f19601f820116820180604052508101906108239190611329565b73ffffffffffffffffffffffffffffffffffffffff1614806108bd57508373ffffffffffffffffffffffffffffffffffffffff1663e985e9c533306040518363ffffffff1660e01b815260040161087b9291906113c2565b602060405180830381865afa158015610898573d6000803e3d6000fd5b505050506040513d601f19601f820116820180604052508101906108bc9190611417565b5b6108fc576040517f08c379a00000000000000000000000000000000000000000000000000000000081526004016108f390611490565b60405180910390fd5b6040518060a001604052803373ffffffffffffffffffffffffffffffffffffffff1681526020018573ffffffffffffffffffffffffffffffffffffffff16815260200184815260200183815260200160011515815250600160008673ffffffffffffffffffffffffffffffffffffffff1673ffffffffffffffffffffffffffffffffffffffff168152602001908152602001600020600085815260200190815260200160002060008201518160000160006101000a81548173ffffffffffffffffffffffffffffffffffffffff021916908373ffffffffffffffffffffffffffffffffffffffff16021790555060208201518160010160006101000a81548173ffffffffffffffffffffffffffffffffffffffff021916908373ffffffffffffffffffffffffffffffffffffffff160217905550604082015181600201556060820151816003015560808201518160040160006101000a81548160ff021916908315150217905550905050828473ffffffffffffffffffffffffffffffffffffffff163373ffffffffffffffffffffffffffffffffffffffff167fd9d69fee247951cc283dc6f5b64c36ce396a36146405a798b86ebfd113c8b5ca85604051610ac5919061128d565b60405180910390a450505050565b6000600160008473ffffffffffffffffffffffffffffffffffffffff1673ffffffffffffffffffffffffffffffffffffffff168152602001908152602001600020600083815260200190815260200160002090503373ffffffffffffffffffffffffffffffffffffffff168160000160009054906101000a900473ffffffffffffffffffffffffffffffffffffffff1673ffffffffffffffffffffffffffffffffffffffff1614610bb9576040517f08c379a0000000000000000000000000000000000000000000000000000000008152600401610bb0906114fc565b60405180910390fd5b8060040160009054906101000a900460ff16610c0a576040517f08c379a0000000000000000000000000000000000000000000000000000000008152600401610c0190611568565b60405180910390fd5b60008160040160006101000a81548160ff021916908315150217905550818373ffffffffffffffffffffffffffffffffffffffff163373ffffffffffffffffffffffffffffffffffffffff167f915fb8c652d6245752cc491b71bd8e87ab6761417f8d2ca353c8055103294c0360405160405180910390a4505050565b610c8f610d0d565b600073ffffffffffffffffffffffffffffffffffffffff168173ffffffffffffffffffffffffffffffffffffffff1603610d015760006040517f1e4fbdf7000000000000000000000000000000000000000000000000000000008152600401610cf891906110d2565b60405180910390fd5b610d0a81610d94565b50565b610d15610e58565b73ffffffffffffffffffffffffffffffffffffffff16610d336103c0565b73ffffffffffffffffffffffffffffffffffffffff1614610d9257610d56610e58565b6040517f118cdaa7000000000000000000000000000000000000000000000000000000008152600401610d8991906110d2565b60405180910390fd5b565b60008060009054906101000a900473ffffffffffffffffffffffffffffffffffffffff169050816000806101000a81548173ffffffffffffffffffffffffffffffffffffffff021916908373ffffffffffffffffffffffffffffffffffffffff1602179055508173ffffffffffffffffffffffffffffffffffffffff168173ffffffffffffffffffffffffffffffffffffffff167f8be0079c531659141344cd1fd0a4f28419497f9722a3daafe3b4186f6b6457e060405160405180910390a35050565b600033905090565b6040518060a00160405280600073ffffffffffffffffffffffffffffffffffffffff168152602001600073ffffffffffffffffffffffffffffffffffffffff16815260200160008152602001600081526020016000151581525090565b600080fd5b600073ffffffffffffffffffffffffffffffffffffffff82169050919050565b6000610eed82610ec2565b9050919050565b610efd81610ee2565b8114610f0857600080fd5b50565b600081359050610f1a81610ef4565b92915050565b6000819050919050565b610f3381610f20565b8114610f3e57600080fd5b50565b600081359050610f5081610f2a565b92915050565b60008060408385031215610f6d57610f6c610ebd565b5b6000610f7b85828601610f0b565b9250506020610f8c85828601610f41565b9150509250929050565b610f9f81610ee2565b82525050565b610fae81610f20565b82525050565b60008115159050919050565b610fc981610fb4565b82525050565b600060a082019050610fe46000830188610f96565b610ff16020830187610f96565b610ffe6040830186610fa5565b61100b6060830185610fa5565b6110186080830184610fc0565b9695505050505050565b61102b81610ee2565b82525050565b61103a81610f20565b82525050565b61104981610fb4565b82525050565b60a0820160008201516110656000850182611022565b5060208201516110786020850182611022565b50604082015161108b6040850182611031565b50606082015161109e6060850182611031565b5060808201516110b16080850182611040565b50505050565b600060a0820190506110cc600083018461104f565b92915050565b60006020820190506110e76000830184610f96565b92915050565b60008060006060848603121561110657611105610ebd565b5b600061111486828701610f0b565b935050602061112586828701610f41565b925050604061113686828701610f41565b9150509250925092565b60006020828403121561115657611155610ebd565b5b600061116484828501610f0b565b91505092915050565b600082825260208201905092915050565b7f4e6f74206c697374656400000000000000000000000000000000000000000000600082015250565b60006111b4600a8361116d565b91506111bf8261117e565b602082019050919050565b600060208201905081810360008301526111e3816111a7565b9050919050565b7f496e73756666696369656e742066756e64730000000000000000000000000000600082015250565b600061122060128361116d565b915061122b826111ea565b602082019050919050565b6000602082019050818103600083015261124f81611213565b9050919050565b600060608201905061126b6000830186610f96565b6112786020830185610f96565b6112856040830184610fa5565b949350505050565b60006020820190506112a26000830184610fa5565b92915050565b7f5072696365206d757374206265206d6f7265207468616e203000000000000000600082015250565b60006112de60198361116d565b91506112e9826112a8565b602082019050919050565b6000602082019050818103600083015261130d816112d1565b9050919050565b60008151905061132381610ef4565b92915050565b60006020828403121561133f5761133e610ebd565b5b600061134d84828501611314565b91505092915050565b7f4e6f7420746865206f776e657200000000000000000000000000000000000000600082015250565b600061138c600d8361116d565b915061139782611356565b602082019050919050565b600060208201905081810360008301526113bb8161137f565b9050919050565b60006040820190506113d76000830185610f96565b6113e46020830184610f96565b9392505050565b6113f481610fb4565b81146113ff57600080fd5b50565b600081519050611411816113eb565b92915050565b60006020828403121561142d5761142c610ebd565b5b600061143b84828501611402565b91505092915050565b7f4d61726b6574706c616365206e6f7420617070726f7665640000000000000000600082015250565b600061147a60188361116d565b915061148582611444565b602082019050919050565b600060208201905081810360008301526114a98161146d565b9050919050565b7f4e6f7420796f7572206c697374696e6700000000000000000000000000000000600082015250565b60006114e660108361116d565b91506114f1826114b0565b602082019050919050565b60006020820190508181036000830152611515816114d9565b9050919050565b7f416c726561647920696e61637469766500000000000000000000000000000000600082015250565b600061155260108361116d565b915061155d8261151c565b602082019050919050565b6000602082019050818103600083015261158181611545565b905091905056fea26469706673582212205abe44b2265aa2191115570c905a74234210ab1001cc1294649e51d399ea714e64736f6c63430008140033",
  "linkReferences": {},
  "deployedLinkReferences": {}
}