{
  "_format": "hh-sol-artifact-1",
  "contractName": "MaterialNFT",
  "sourceName": "contracts/MaterialNFT.sol",
  "abi": [
    {
      "inputs": [
        {
          "internalType": "address",
          "name": "_soulBoundToken",
          "type": "address"
        },
        {
          "internalType": "address",
          "name": "_certificateNFT",
          "type": "address"
        }
      ],
      "stateMutability": "nonpayable",
      "type": "constructor"
    },
    {
      "inputs": [
        {
          "internalType": "address",
          "name": "sender",
          "type": "address"
        },
        {
          "internalType": "uint256",
          "name": "tokenId",
          "type": "uint256"
        },
        {
          "internalType": "address",
          "name": "owner",
          "type": "address"
        }
      ],
      "name": "ERC721IncorrectOwner",
      "type": "error"
    },
    {
      "inputs": [
        {
          "internalType": "address",
          "name": "operator",
          "type": "address"
        },
        {
          "internalType": "uint256",
          "name": "tokenId",
          "type": "uint256"
        }
      ],
      "name": "ERC721InsufficientApproval",
      "type": "error"
    },
    {
      "inputs": [
        {
          "internalType": "address",
          "name": "approver",
          "type": "address"
        }
      ],
      "name": "ERC721InvalidApprover",
      "type": "error"
    },
    {
      "inputs": [
        {
          "internalType": "address",
          "name": "operator",
          "type": "address"
        }
      ],
      "name": "ERC721InvalidOperator",
      "type": "error"
    },
    {
      "inputs": [
        {
          "internalType": "address",
          "name": "owner",
          "type": "address"
        }
      ],
      "name": "ERC721InvalidOwner",
      "type": "error"
    },
    {
      "inputs": [
        {
          "internalType": "address",
          "name": "receiver",
          "type": "address"
        }
      ],
      "name": "ERC721InvalidReceiver",
      "type": "error"
    },
    {
      "inputs": [
        {
          "internalType": "address",
          "name": "sender",
          "type": "address"
        }
      ],
      "name": "ERC721InvalidSender",
      "type": "error"
    },
    {
      "inputs": [
        {
          "internalType": "uint256",
          "name": "tokenId",
          "type": "uint256"
        }
      ],
      "name": "ERC721NonexistentToken",
      "type": "error"
    },
    {
      "inputs": [
        {
          "internalType": "address",
          "name": "owner",
          "type": "address"
        }
      ],
      "name": "OwnableInvalidOwner",
      "type": "error"
    },
    {
      "inputs": [
        {
          "internalType": "address",
          "name": "account",
          "type": "address"
        }
      ],
      "name": "OwnableUnauthorizedAccount",
      "type": "error"
    },
    {
      "anonymous": false,
      "inputs": [
        {
          "indexed": true,
          "internalType": "address",
          "name": "owner",
          "type": "address"
        },
        {
          "indexed": true,
          "internalType": "address",
          "name": "approved",
          "type": "address"
        },
        {
          "indexed": true,
          "internalType": "uint256",
          "name": "tokenId",
          "type": "uint256"
        }
      ],
      "name": "Approval",
      "type": "event"
    },
    {
      "anonymous": false,
      "inputs": [
        {
          "indexed": true,
          "internalType": "address",
          "name": "owner",
          "type": "address"
        },
        {
          "indexed": true,
          "internalType": "address",
          "name": "operator",
          "type": "address"
        },
        {
          "indexed": false,
          "internalType": "bool",
          "name": "approved",
          "type": "bool"
        }
      ],
      "name": "ApprovalForAll",
      "type": "event"
    },
    {
      "anonymous": false,
      "inputs": [
        {
          "indexed": true,
          "internalType": "address",
          "name": "previousOwner",
          "type": "address"
        },
        {
          "indexed": true,
          "internalType": "address",
          "name": "newOwner",
          "type": "address"
        }
      ],
      "name": "OwnershipTransferred",
      "type": "event"
    },
    {
      "anonymous": false,
      "inputs": [
        {
          "indexed": true,
          "internalType": "address",
          "name": "from",
          "type": "address"
        },
        {
          "indexed": true,
          "internalType": "address",
          "name": "to",
          "type": "address"
        },
        {
          "indexed": true,
          "internalType": "uint256",
          "name": "tokenId",
          "type": "uint256"
        }
      ],
      "name": "Transfer",
      "type": "event"
    },
    {
      "inputs": [],
      "name": "DEFAULT_EXPIRATION_TIMESTAMP",
      "outputs": [
        {
          "internalType": "uint256",
          "name": "",
          "type": "uint256"
        }
      ],
      "stateMutability": "view",
      "type": "function"
    },
    {
      "inputs": [
        {
          "internalType": "address",
          "name": "to",
          "type": "address"
        },
        {
          "internalType": "uint256",
          "name": "tokenId",
          "type": "uint256"
        }
      ],
      "name": "approve",
      "outputs": [],
      "stateMutability": "nonpayable",
      "type": "function"
    },
    {
      "inputs": [
        {
          "internalType": "address",
          "name": "owner",
          "type": "address"
        }
      ],
      "name": "balanceOf",
      "outputs": [
        {
          "internalType": "uint256",
          "name": "",
          "type": "uint256"
        }
      ],
      "stateMutability": "view",
      "type": "function"
    },
    {
      "inputs": [],
      "name": "certificateNFT",
      "outputs": [
        {
          "internalType": "contract CertificateNFT",
          "name": "",
          "type": "address"
        }
      ],
      "stateMutability": "view",
      "type": "function"
    },
    {
      "inputs": [
        {
          "internalType": "uint256",
          "name": "tokenId",
          "type": "uint256"
        }
      ],
      "name": "getApproved",
      "outputs": [
        {
          "internalType": "address",
          "name": "",
          "type": "address"
        }
      ],
      "stateMutability": "view",
      "type": "function"
    },
    {
      "inputs": [
        {
          "internalType": "uint256",
          "name": "tokenId",
          "type": "uint256"
        }
      ],
      "name": "getExpiration",
      "outputs": [
        {
          "internalType": "uint256",
          "name": "",
          "type": "uint256"
        }
      ],
      "stateMutability": "view",
      "type": "function"
    },
    {
      "inputs": [
        {
          "internalType": "address",
          "name": "owner",
          "type": "address"
        },
        {
          "internalType": "address",
          "name": "operator",
          "type": "address"
        }
      ],
      "name": "isApprovedForAll",
      "outputs": [
        {
          "internalType": "bool",
          "name": "",
          "type": "bool"
        }
      ],
      "stateMutability": "view",
      "type": "function"
    },
    {
      "inputs": [
        {
          "internalType": "uint256",
          "name": "",
          "type": "uint256"
        }
      ],
      "name": "materials",
      "outputs": [
        {
          "internalType": "string",
          "name": "id",
          "type": "string"
        },
        {
          "internalType": "enum MaterialNFT.Status",
          "name": "status",
          "type": "uint8"
        },
        {
          "internalType": "uint256",
          "name": "expirationTimestamp",
          "type": "uint256"
        },
        {
          "internalType": "string",
          "name": "metadataURI",
          "type": "string"
        }
      ],
      "stateMutability": "view",
      "type": "function"
    },
    {
      "inputs": [
        {
          "internalType": "string",
          "name": "_metadataURI",
          "type": "string"
        },
        {
          "internalType": "uint256",
          "name": "expirationTimestamp",
          "type": "uint256"
        }
      ],
      "name": "mint",
      "outputs": [
        {
          "internalType": "uint256",
          "name": "",
          "type": "uint256"
        }
      ],
      "stateMutability": "nonpayable",
      "type": "function"
    },
    {
      "inputs": [
        {
          "internalType": "string",
          "name": "_metadataURI",
          "type": "string"
        }
      ],
      "name": "mint",
      "outputs": [
        {
          "internalType": "uint256",
          "name": "",
          "type": "uint256"
        }
      ],
      "stateMutability": "nonpayable",
      "type": "function"
    },
    {
      "inputs": [],
      "name": "name",
      "outputs": [
        {
          "internalType": "string",
          "name": "",
          "type": "string"
        }
      ],
      "stateMutability": "view",
      "type": "function"
    },
    {
      "inputs": [],
      "name": "owner",
      "outputs": [
        {
          "internalType": "address",
          "name": "",
          "type": "address"
        }
      ],
      "stateMutability": "view",
      "type": "function"
    },
    {
      "inputs": [
        {
          "internalType": "uint256",
          "name": "tokenId",
          "type": "uint256"
        }
      ],
      "name": "ownerOf",
      "outputs": [
        {
          "internalType": "address",
          "name": "",
          "type": "address"
        }
      ],
      "stateMutability": "view",
      "type": "function"
    },
    {
      "inputs": [],
      "name": "renounceOwnership",
      "outputs": [],
      "stateMutability": "nonpayable",
      "type": "function"
    },
    {
      "inputs": [
        {
          "internalType": "address",
          "name": "from",
          "type": "address"
        },
        {
          "internalType": "address",
          "name": "to",
          "type": "address"
        },
        {
          "internalType": "uint256",
          "name": "tokenId",
          "type": "uint256"
        }
      ],
      "name": "safeTransferFrom",
      "outputs": [],
      "stateMutability": "nonpayable",
      "type": "function"
    },
    {
      "inputs": [
        {
          "internalType": "address",
          "name": "from",
          "type": "address"
        },
        {
          "internalType": "address",
          "name": "to",
          "type": "address"
        },
        {
          "internalType": "uint256",
          "name": "tokenId",
          "type": "uint256"
        },
        {
          "internalType": "bytes",
          "name": "data",
          "type": "bytes"
        }
      ],
      "name": "safeTransferFrom",
      "outputs": [],
      "stateMutability": "nonpayable",
      "type": "function"
    },
    {
      "inputs": [
        {
          "internalType": "address",
          "name": "operator",
          "type": "address"
        },
        {
          "internalType": "bool",
          "name": "approved",
          "type": "bool"
        }
      ],
      "name": "setApprovalForAll",
      "outputs": [],
      "stateMutability": "nonpayable",
      "type": "function"
    },
    {
      "inputs": [],
      "name": "soulBoundToken",
      "outputs": [
        {
          "internalType": "contract SoulBoundRole",
          "name": "",
          "type": "address"
        }
      ],
      "stateMutability": "view",
      "type": "function"
    },
    {
      "inputs": [
        {
          "internalType": "bytes4",
          "name": "interfaceId",
          "type": "bytes4"
        }
      ],
      "name": "supportsInterface",
      "outputs": [
        {
          "internalType": "bool",
          "name": "",
          "type": "bool"
        }
      ],
      "stateMutability": "view",
      "type": "function"
    },
    {
      "inputs": [],
      "name": "symbol",
      "outputs": [
        {
          "internalType": "string",
          "name": "",
          "type": "string"
        }
      ],
      "stateMutability": "view",
      "type": "function"
    },
    {
      "inputs": [
        {
          "internalType": "uint256",
          "name": "tokenId",
          "type": "uint256"
        }
      ],
      "name": "tokenURI",
      "outputs": [
        {
          "internalType": "string",
          "name": "",
          "type": "string"
        }
      ],
      "stateMutability": "view",
      "type": "function"
    },
    {
      "inputs": [
        {
          "internalType": "address",
          "name": "from",
          "type": "address"
        },
        {
          "internalType": "address",
          "name": "to",
          "type": "address"
        },
        {
          "internalType": "uint256",
          "name": "tokenId",
          "type": "uint256"
        }
      ],
      "name": "transferFrom",
      "outputs": [],
      "stateMutability": "nonpayable",
      "type": "function"
    },
    {
      "inputs": [
        {
          "internalType": "address",
          "name": "newOwner",
          "type": "address"
        }
      ],
      "name": "transferOwnership",
      "outputs": [],
      "stateMutability": "nonpayable",
      "type": "function"
    },
    {
      "inputs": [
        {
          "internalType": "uint256",
          "name": "tokenId",
          "type": "uint256"
        },
        {
          "internalType": "enum MaterialNFT.Status",
          "name": "_newStatus",
          "type": "uint8"
        }
      ],
      "name": "updateStatus",
      "outputs": [],
      "stateMutability": "nonpayable",
      "type": "function"
    }
  ],
  "bytecode": "0x60806040523480156200001157600080fd5b5060405162003bac38038062003bac83398181016040528101906200003791906200030b565b336040518060400160405280600b81526020017f4d6174657269616c4e46540000000000000000000000000000000000000000008152506040518060400160405280600481526020017f4d4e4654000000000000000000000000000000000000000000000000000000008152508160009081620000b59190620005cc565b508060019081620000c79190620005cc565b505050600073ffffffffffffffffffffffffffffffffffffffff168173ffffffffffffffffffffffffffffffffffffffff16036200013f5760006040517f1e4fbdf7000000000000000000000000000000000000000000000000000000008152600401620001369190620006c4565b60405180910390fd5b6200015081620001db60201b60201c565b5081600760006101000a81548173ffffffffffffffffffffffffffffffffffffffff021916908373ffffffffffffffffffffffffffffffffffffffff16021790555080600860006101000a81548173ffffffffffffffffffffffffffffffffffffffff021916908373ffffffffffffffffffffffffffffffffffffffff1602179055505050620006e1565b6000600660009054906101000a900473ffffffffffffffffffffffffffffffffffffffff16905081600660006101000a81548173ffffffffffffffffffffffffffffffffffffffff021916908373ffffffffffffffffffffffffffffffffffffffff1602179055508173ffffffffffffffffffffffffffffffffffffffff168173ffffffffffffffffffffffffffffffffffffffff167f8be0079c531659141344cd1fd0a4f28419497f9722a3daafe3b4186f6b6457e060405160405180910390a35050565b600080fd5b600073ffffffffffffffffffffffffffffffffffffffff82169050919050565b6000620002d382620002a6565b9050919050565b620002e581620002c6565b8114620002f157600080fd5b50565b6000815190506200030581620002da565b92915050565b60008060408385031215620003255762000324620002a1565b5b60006200033585828601620002f4565b92505060206200034885828601620002f4565b9150509250929050565b600081519050919050565b7f4e487b7100000000000000000000000000000000000000000000000000000000600052604160045260246000fd5b7f4e487b7100000000000000000000000000000000000000000000000000000000600052602260045260246000fd5b60006002820490506001821680620003d457607f821691505b602082108103620003ea57620003e96200038c565b5b50919050565b60008190508160005260206000209050919050565b60006020601f8301049050919050565b600082821b905092915050565b600060088302620004547fffffffffffffffffffffffffffffffffffffffffffffffffffffffffffffffff8262000415565b62000460868362000415565b95508019841693508086168417925050509392505050565b6000819050919050565b6000819050919050565b6000620004ad620004a7620004a18462000478565b62000482565b62000478565b9050919050565b6000819050919050565b620004c9836200048c565b620004e1620004d882620004b4565b84845462000422565b825550505050565b600090565b620004f8620004e9565b62000505818484620004be565b505050565b5b818110156200052d5762000521600082620004ee565b6001810190506200050b565b5050565b601f8211156200057c576200054681620003f0565b620005518462000405565b8101602085101562000561578190505b62000579620005708562000405565b8301826200050a565b50505b505050565b600082821c905092915050565b6000620005a16000198460080262000581565b1980831691505092915050565b6000620005bc83836200058e565b9150826002028217905092915050565b620005d78262000352565b67ffffffffffffffff811115620005f357620005f26200035d565b5b620005ff8254620003bb565b6200060c82828562000531565b600060209050601f8311600181146200064457600084156200062f578287015190505b6200063b8582620005ae565b865550620006ab565b601f1984166200065486620003f0565b60005b828110156200067e5784890151825560018201915060208501945060208101905062000657565b868310156200069e57848901516200069a601f8916826200058e565b8355505b6001600288020188555050505b505050505050565b620006be81620002c6565b82525050565b6000602082019050620006db6000830184620006b3565b92915050565b6134bb80620006f16000396000f3fe608060405234801561001057600080fd5b50600436106101585760003560e01c80637a8e8526116100c3578063a22cb4651161007c578063a22cb465146103de578063b88d4fde146103fa578063c87b56dd14610416578063d85d3d2714610446578063e985e9c514610476578063f2fde38b146104a657610158565b80637a8e852614610303578063895e7c26146103365780638da5cb5b1461035457806391aec72a1461037257806395d89b4114610390578063a05b775f146103ae57610158565b80633a1b3d31116101155780633a1b3d311461024357806342842e0e1461025f5780634290ba901461027b5780636352211e1461029957806370a08231146102c9578063715018a6146102f957610158565b806301ffc9a71461015d578063056b01ce1461018d57806306fdde03146101bd578063081812fc146101db578063095ea7b31461020b57806323b872dd14610227575b600080fd5b61017760048036038101906101729190612412565b6104c2565b604051610184919061245a565b60405180910390f35b6101a760048036038101906101a29190612510565b6105a4565b6040516101b4919061257f565b60405180910390f35b6101c56108f4565b6040516101d2919061262a565b60405180910390f35b6101f560048036038101906101f0919061264c565b610986565b60405161020291906126ba565b60405180910390f35b61022560048036038101906102209190612701565b6109a2565b005b610241600480360381019061023c9190612741565b6109b8565b005b61025d600480360381019061025891906127b9565b610aba565b005b61027960048036038101906102749190612741565b610b72565b005b610283610b92565b6040516102909190612858565b60405180910390f35b6102b360048036038101906102ae919061264c565b610bb8565b6040516102c091906126ba565b60405180910390f35b6102e360048036038101906102de9190612873565b610bca565b6040516102f0919061257f565b60405180910390f35b610301610c84565b005b61031d6004803603810190610318919061264c565b610c98565b60405161032d9493929190612917565b60405180910390f35b61033e610de5565b60405161034b919061257f565b60405180910390f35b61035c610dec565b60405161036991906126ba565b60405180910390f35b61037a610e16565b604051610387919061298b565b60405180910390f35b610398610e3c565b6040516103a5919061262a565b60405180910390f35b6103c860048036038101906103c3919061264c565b610ece565b6040516103d5919061257f565b60405180910390f35b6103f860048036038101906103f391906129d2565b610f64565b005b610414600480360381019061040f9190612b42565b610f7a565b005b610430600480360381019061042b919061264c565b610f9f565b60405161043d919061262a565b60405180910390f35b610460600480360381019061045b9190612bc5565b6110be565b60405161046d919061257f565b60405180910390f35b610490600480360381019061048b9190612c12565b6113d9565b60405161049d919061245a565b60405180910390f35b6104c060048036038101906104bb9190612873565b61146d565b005b60007f80ac58cd000000000000000000000000000000000000000000000000000000007bffffffffffffffffffffffffffffffffffffffffffffffffffffffff1916827bffffffffffffffffffffffffffffffffffffffffffffffffffffffff1916148061058d57507f5b5e139f000000000000000000000000000000000000000000000000000000007bffffffffffffffffffffffffffffffffffffffffffffffffffffffff1916827bffffffffffffffffffffffffffffffffffffffffffffffffffffffff1916145b8061059d575061059c826114f3565b5b9050919050565b60006001808111156105b9576105b86128a0565b5b600760009054906101000a900473ffffffffffffffffffffffffffffffffffffffff1673ffffffffffffffffffffffffffffffffffffffff166344276733336040518263ffffffff1660e01b815260040161061491906126ba565b602060405180830381865afa158015610631573d6000803e3d6000fd5b505050506040513d601f19601f820116820180604052508101906106559190612c77565b6001811115610667576106666128a0565b5b146106a7576040517f08c379a000000000000000000000000000000000000000000000000000000000815260040161069e90612cf0565b60405180910390fd5b600860009054906101000a900473ffffffffffffffffffffffffffffffffffffffff1673ffffffffffffffffffffffffffffffffffffffff1663521e42c3336040518263ffffffff1660e01b815260040161070291906126ba565b602060405180830381865afa15801561071f573d6000803e3d6000fd5b505050506040513d601f19601f820116820180604052508101906107439190612d25565b610782576040517f08c379a000000000000000000000000000000000000000000000000000000000815260040161077990612d9e565b60405180910390fd5b4282116107c4576040517f08c379a00000000000000000000000000000000000000000000000000000000081526004016107bb90612e30565b60405180910390fd5b600960008154809291906107d790612e7f565b9190505550600060095490506107ed338261155d565b60405180608001604052806108018361157b565b81526020016000600381111561081a576108196128a0565b5b815260200184815260200186868080601f016020809104026020016040519081016040528093929190818152602001838380828437600081840152601f19601f82011690508083019250505050505050815250600a6000838152602001908152602001600020600082015181600001908161089591906130c9565b5060208201518160010160006101000a81548160ff021916908360038111156108c1576108c06128a0565b5b02179055506040820151816002015560608201518160030190816108e591906130c9565b50905050809150509392505050565b60606000805461090390612ef6565b80601f016020809104026020016040519081016040528092919081815260200182805461092f90612ef6565b801561097c5780601f106109515761010080835404028352916020019161097c565b820191906000526020600020905b81548152906001019060200180831161095f57829003601f168201915b5050505050905090565b600061099182611649565b5061099b826116d1565b9050919050565b6109b482826109af61170e565b611716565b5050565b600073ffffffffffffffffffffffffffffffffffffffff168273ffffffffffffffffffffffffffffffffffffffff1603610a2a5760006040517f64a0ae92000000000000000000000000000000000000000000000000000000008152600401610a2191906126ba565b60405180910390fd5b6000610a3e8383610a3961170e565b611728565b90508373ffffffffffffffffffffffffffffffffffffffff168173ffffffffffffffffffffffffffffffffffffffff1614610ab4578382826040517f64283d7b000000000000000000000000000000000000000000000000000000008152600401610aab9392919061319b565b60405180910390fd5b50505050565b3373ffffffffffffffffffffffffffffffffffffffff16610ada83610bb8565b73ffffffffffffffffffffffffffffffffffffffff1614610b30576040517f08c379a0000000000000000000000000000000000000000000000000000000008152600401610b279061321e565b60405180910390fd5b80600a600084815260200190815260200160002060010160006101000a81548160ff02191690836003811115610b6957610b686128a0565b5b02179055505050565b610b8d83838360405180602001604052806000815250610f7a565b505050565b600760009054906101000a900473ffffffffffffffffffffffffffffffffffffffff1681565b6000610bc382611649565b9050919050565b60008073ffffffffffffffffffffffffffffffffffffffff168273ffffffffffffffffffffffffffffffffffffffff1603610c3d5760006040517f89c62b64000000000000000000000000000000000000000000000000000000008152600401610c3491906126ba565b60405180910390fd5b600360008373ffffffffffffffffffffffffffffffffffffffff1673ffffffffffffffffffffffffffffffffffffffff168152602001908152602001600020549050919050565b610c8c611942565b610c9660006119c9565b565b600a602052806000526040600020600091509050806000018054610cbb90612ef6565b80601f0160208091040260200160405190810160405280929190818152602001828054610ce790612ef6565b8015610d345780601f10610d0957610100808354040283529160200191610d34565b820191906000526020600020905b815481529060010190602001808311610d1757829003601f168201915b5050505050908060010160009054906101000a900460ff1690806002015490806003018054610d6290612ef6565b80601f0160208091040260200160405190810160405280929190818152602001828054610d8e90612ef6565b8015610ddb5780601f10610db057610100808354040283529160200191610ddb565b820191906000526020600020905b815481529060010190602001808311610dbe57829003601f168201915b5050505050905084565b62ed4e0081565b6000600660009054906101000a900473ffffffffffffffffffffffffffffffffffffffff16905090565b600860009054906101000a900473ffffffffffffffffffffffffffffffffffffffff1681565b606060018054610e4b90612ef6565b80601f0160208091040260200160405190810160405280929190818152602001828054610e7790612ef6565b8015610ec45780601f10610e9957610100808354040283529160200191610ec4565b820191906000526020600020905b815481529060010190602001808311610ea757829003601f168201915b5050505050905090565b60008073ffffffffffffffffffffffffffffffffffffffff16610ef083611a8f565b73ffffffffffffffffffffffffffffffffffffffff1603610f46576040517f08c379a0000000000000000000000000000000000000000000000000000000008152600401610f3d9061328a565b60405180910390fd5b600a6000838152602001908152602001600020600201549050919050565b610f76610f6f61170e565b8383611acc565b5050565b610f858484846109b8565b610f99610f9061170e565b85858585611c3b565b50505050565b6060600073ffffffffffffffffffffffffffffffffffffffff16610fc283611a8f565b73ffffffffffffffffffffffffffffffffffffffff1603611018576040517f08c379a000000000000000000000000000000000000000000000000000000000815260040161100f906132f6565b60405180910390fd5b600a6000838152602001908152602001600020600301805461103990612ef6565b80601f016020809104026020016040519081016040528092919081815260200182805461106590612ef6565b80156110b25780601f10611087576101008083540402835291602001916110b2565b820191906000526020600020905b81548152906001019060200180831161109557829003601f168201915b50505050509050919050565b60006001808111156110d3576110d26128a0565b5b600760009054906101000a900473ffffffffffffffffffffffffffffffffffffffff1673ffffffffffffffffffffffffffffffffffffffff166344276733336040518263ffffffff1660e01b815260040161112e91906126ba565b602060405180830381865afa15801561114b573d6000803e3d6000fd5b505050506040513d601f19601f8201168201806040525081019061116f9190612c77565b6001811115611181576111806128a0565b5b146111c1576040517f08c379a00000000000000000000000000000000000000000000000000000000081526004016111b890612cf0565b60405180910390fd5b600860009054906101000a900473ffffffffffffffffffffffffffffffffffffffff1673ffffffffffffffffffffffffffffffffffffffff1663521e42c3336040518263ffffffff1660e01b815260040161121c91906126ba565b602060405180830381865afa158015611239573d6000803e3d6000fd5b505050506040513d601f19601f8201168201806040525081019061125d9190612d25565b61129c576040517f08c379a000000000000000000000000000000000000000000000000000000000815260040161129390612d9e565b60405180910390fd5b600960008154809291906112af90612e7f565b9190505550600060095490506112c5338261155d565b60405180608001604052806112d98361157b565b8152602001600060038111156112f2576112f16128a0565b5b815260200162ed4e00426113069190613316565b815260200185858080601f016020809104026020016040519081016040528093929190818152602001838380828437600081840152601f19601f82011690508083019250505050505050815250600a6000838152602001908152602001600020600082015181600001908161137b91906130c9565b5060208201518160010160006101000a81548160ff021916908360038111156113a7576113a66128a0565b5b02179055506040820151816002015560608201518160030190816113cb91906130c9565b509050508091505092915050565b6000600560008473ffffffffffffffffffffffffffffffffffffffff1673ffffffffffffffffffffffffffffffffffffffff16815260200190815260200160002060008373ffffffffffffffffffffffffffffffffffffffff1673ffffffffffffffffffffffffffffffffffffffff16815260200190815260200160002060009054906101000a900460ff16905092915050565b611475611942565b600073ffffffffffffffffffffffffffffffffffffffff168173ffffffffffffffffffffffffffffffffffffffff16036114e75760006040517f1e4fbdf70000000000000000000000000000000000000000000000000000000081526004016114de91906126ba565b60405180910390fd5b6114f0816119c9565b50565b60007f01ffc9a7000000000000000000000000000000000000000000000000000000007bffffffffffffffffffffffffffffffffffffffffffffffffffffffff1916827bffffffffffffffffffffffffffffffffffffffffffffffffffffffff1916149050919050565b611577828260405180602001604052806000815250611dec565b5050565b60606000600161158a84611e10565b01905060008167ffffffffffffffff8111156115a9576115a8612a17565b5b6040519080825280601f01601f1916602001820160405280156115db5781602001600182028036833780820191505090505b509050600082602083010190505b60011561163e578080600190039150507f3031323334353637383961626364656600000000000000000000000000000000600a86061a8153600a85816116325761163161334a565b5b049450600085036115e9575b819350505050919050565b60008061165583611a8f565b9050600073ffffffffffffffffffffffffffffffffffffffff168173ffffffffffffffffffffffffffffffffffffffff16036116c857826040517f7e2732890000000000000000000000000000000000000000000000000000000081526004016116bf919061257f565b60405180910390fd5b80915050919050565b60006004600083815260200190815260200160002060009054906101000a900473ffffffffffffffffffffffffffffffffffffffff169050919050565b600033905090565b6117238383836001611f63565b505050565b60008061173484611a8f565b9050600073ffffffffffffffffffffffffffffffffffffffff168373ffffffffffffffffffffffffffffffffffffffff161461177657611775818486612128565b5b600073ffffffffffffffffffffffffffffffffffffffff168173ffffffffffffffffffffffffffffffffffffffff1614611807576117b8600085600080611f63565b6001600360008373ffffffffffffffffffffffffffffffffffffffff1673ffffffffffffffffffffffffffffffffffffffff168152602001908152602001600020600082825403925050819055505b600073ffffffffffffffffffffffffffffffffffffffff168573ffffffffffffffffffffffffffffffffffffffff161461188a576001600360008773ffffffffffffffffffffffffffffffffffffffff1673ffffffffffffffffffffffffffffffffffffffff168152602001908152602001600020600082825401925050819055505b846002600086815260200190815260200160002060006101000a81548173ffffffffffffffffffffffffffffffffffffffff021916908373ffffffffffffffffffffffffffffffffffffffff160217905550838573ffffffffffffffffffffffffffffffffffffffff168273ffffffffffffffffffffffffffffffffffffffff167fddf252ad1be2c89b69c2b068fc378daa952ba7f163c4a11628f55a4df523b3ef60405160405180910390a4809150509392505050565b61194a61170e565b73ffffffffffffffffffffffffffffffffffffffff16611968610dec565b73ffffffffffffffffffffffffffffffffffffffff16146119c75761198b61170e565b6040517f118cdaa70000000000000000000000000000000000000000000000000000000081526004016119be91906126ba565b60405180910390fd5b565b6000600660009054906101000a900473ffffffffffffffffffffffffffffffffffffffff16905081600660006101000a81548173ffffffffffffffffffffffffffffffffffffffff021916908373ffffffffffffffffffffffffffffffffffffffff1602179055508173ffffffffffffffffffffffffffffffffffffffff168173ffffffffffffffffffffffffffffffffffffffff167f8be0079c531659141344cd1fd0a4f28419497f9722a3daafe3b4186f6b6457e060405160405180910390a35050565b60006002600083815260200190815260200160002060009054906101000a900473ffffffffffffffffffffffffffffffffffffffff169050919050565b600073ffffffffffffffffffffffffffffffffffffffff168273ffffffffffffffffffffffffffffffffffffffff1603611b3d57816040517f5b08ba18000000000000000000000000000000000000000000000000000000008152600401611b3491906126ba565b60405180910390fd5b80600560008573ffffffffffffffffffffffffffffffffffffffff1673ffffffffffffffffffffffffffffffffffffffff16815260200190815260200160002060008473ffffffffffffffffffffffffffffffffffffffff1673ffffffffffffffffffffffffffffffffffffffff16815260200190815260200160002060006101000a81548160ff0219169083151502179055508173ffffffffffffffffffffffffffffffffffffffff168373ffffffffffffffffffffffffffffffffffffffff167f17307eab39ab6107e8899845ad3d59bd9653f200f220920489ca2b5937696c3183604051611c2e919061245a565b60405180910390a3505050565b60008373ffffffffffffffffffffffffffffffffffffffff163b1115611de5578273ffffffffffffffffffffffffffffffffffffffff1663150b7a02868685856040518563ffffffff1660e01b8152600401611c9a94939291906133ce565b6020604051808303816000875af1925050508015611cd657506040513d601f19601f82011682018060405250810190611cd3919061342f565b60015b611d5a573d8060008114611d06576040519150601f19603f3d011682016040523d82523d6000602084013e611d0b565b606091505b506000815103611d5257836040517f64a0ae92000000000000000000000000000000000000000000000000000000008152600401611d4991906126ba565b60405180910390fd5b805160208201fd5b63150b7a0260e01b7bffffffffffffffffffffffffffffffffffffffffffffffffffffffff1916817bffffffffffffffffffffffffffffffffffffffffffffffffffffffff191614611de357836040517f64a0ae92000000000000000000000000000000000000000000000000000000008152600401611dda91906126ba565b60405180910390fd5b505b5050505050565b611df683836121ec565b611e0b611e0161170e565b6000858585611c3b565b505050565b600080600090507a184f03e93ff9f4daa797ed6e38ed64bf6a1f0100000000000000008310611e6e577a184f03e93ff9f4daa797ed6e38ed64bf6a1f0100000000000000008381611e6457611e6361334a565b5b0492506040810190505b6d04ee2d6d415b85acef81000000008310611eab576d04ee2d6d415b85acef81000000008381611ea157611ea061334a565b5b0492506020810190505b662386f26fc100008310611eda57662386f26fc100008381611ed057611ecf61334a565b5b0492506010810190505b6305f5e1008310611f03576305f5e1008381611ef957611ef861334a565b5b0492506008810190505b6127108310611f28576127108381611f1e57611f1d61334a565b5b0492506004810190505b60648310611f4b5760648381611f4157611f4061334a565b5b0492506002810190505b600a8310611f5a576001810190505b80915050919050565b8080611f9c5750600073ffffffffffffffffffffffffffffffffffffffff168273ffffffffffffffffffffffffffffffffffffffff1614155b156120d0576000611fac84611649565b9050600073ffffffffffffffffffffffffffffffffffffffff168373ffffffffffffffffffffffffffffffffffffffff161415801561201757508273ffffffffffffffffffffffffffffffffffffffff168173ffffffffffffffffffffffffffffffffffffffff1614155b801561202a575061202881846113d9565b155b1561206c57826040517fa9fbf51f00000000000000000000000000000000000000000000000000000000815260040161206391906126ba565b60405180910390fd5b81156120ce57838573ffffffffffffffffffffffffffffffffffffffff168273ffffffffffffffffffffffffffffffffffffffff167f8c5be1e5ebec7d5bd14f71427d1e84f3dd0314c0f7b2291e5b200ac8c7c3b92560405160405180910390a45b505b836004600085815260200190815260200160002060006101000a81548173ffffffffffffffffffffffffffffffffffffffff021916908373ffffffffffffffffffffffffffffffffffffffff16021790555050505050565b6121338383836122e5565b6121e757600073ffffffffffffffffffffffffffffffffffffffff168373ffffffffffffffffffffffffffffffffffffffff16036121a857806040517f7e27328900000000000000000000000000000000000000000000000000000000815260040161219f919061257f565b60405180910390fd5b81816040517f177e802f0000000000000000000000000000000000000000000000000000000081526004016121de92919061345c565b60405180910390fd5b505050565b600073ffffffffffffffffffffffffffffffffffffffff168273ffffffffffffffffffffffffffffffffffffffff160361225e5760006040517f64a0ae9200000000000000000000000000000000000000000000000000000000815260040161225591906126ba565b60405180910390fd5b600061226c83836000611728565b9050600073ffffffffffffffffffffffffffffffffffffffff168173ffffffffffffffffffffffffffffffffffffffff16146122e05760006040517f73c6ac6e0000000000000000000000000000000000000000000000000000000081526004016122d791906126ba565b60405180910390fd5b505050565b60008073ffffffffffffffffffffffffffffffffffffffff168373ffffffffffffffffffffffffffffffffffffffff161415801561239d57508273ffffffffffffffffffffffffffffffffffffffff168473ffffffffffffffffffffffffffffffffffffffff16148061235e575061235d84846113d9565b5b8061239c57508273ffffffffffffffffffffffffffffffffffffffff16612384836116d1565b73ffffffffffffffffffffffffffffffffffffffff16145b5b90509392505050565b6000604051905090565b600080fd5b600080fd5b60007fffffffff0000000000000000000000000000000000000000000000000000000082169050919050565b6123ef816123ba565b81146123fa57600080fd5b50565b60008135905061240c816123e6565b92915050565b600060208284031215612428576124276123b0565b5b6000612436848285016123fd565b91505092915050565b60008115159050919050565b6124548161243f565b82525050565b600060208201905061246f600083018461244b565b92915050565b600080fd5b600080fd5b600080fd5b60008083601f84011261249a57612499612475565b5b8235905067ffffffffffffffff8111156124b7576124b661247a565b5b6020830191508360018202830111156124d3576124d261247f565b5b9250929050565b6000819050919050565b6124ed816124da565b81146124f857600080fd5b50565b60008135905061250a816124e4565b92915050565b600080600060408486031215612529576125286123b0565b5b600084013567ffffffffffffffff811115612547576125466123b5565b5b61255386828701612484565b93509350506020612566868287016124fb565b9150509250925092565b612579816124da565b82525050565b60006020820190506125946000830184612570565b92915050565b600081519050919050565b600082825260208201905092915050565b60005b838110156125d45780820151818401526020810190506125b9565b60008484015250505050565b6000601f19601f8301169050919050565b60006125fc8261259a565b61260681856125a5565b93506126168185602086016125b6565b61261f816125e0565b840191505092915050565b6000602082019050818103600083015261264481846125f1565b905092915050565b600060208284031215612662576126616123b0565b5b6000612670848285016124fb565b91505092915050565b600073ffffffffffffffffffffffffffffffffffffffff82169050919050565b60006126a482612679565b9050919050565b6126b481612699565b82525050565b60006020820190506126cf60008301846126ab565b92915050565b6126de81612699565b81146126e957600080fd5b50565b6000813590506126fb816126d5565b92915050565b60008060408385031215612718576127176123b0565b5b6000612726858286016126ec565b9250506020612737858286016124fb565b9150509250929050565b60008060006060848603121561275a576127596123b0565b5b6000612768868287016126ec565b9350506020612779868287016126ec565b925050604061278a868287016124fb565b9150509250925092565b600481106127a157600080fd5b50565b6000813590506127b381612794565b92915050565b600080604083850312156127d0576127cf6123b0565b5b60006127de858286016124fb565b92505060206127ef858286016127a4565b9150509250929050565b6000819050919050565b600061281e61281961281484612679565b6127f9565b612679565b9050919050565b600061283082612803565b9050919050565b600061284282612825565b9050919050565b61285281612837565b82525050565b600060208201905061286d6000830184612849565b92915050565b600060208284031215612889576128886123b0565b5b6000612897848285016126ec565b91505092915050565b7f4e487b7100000000000000000000000000000000000000000000000000000000600052602160045260246000fd5b600481106128e0576128df6128a0565b5b50565b60008190506128f1826128cf565b919050565b6000612901826128e3565b9050919050565b612911816128f6565b82525050565b6000608082019050818103600083015261293181876125f1565b90506129406020830186612908565b61294d6040830185612570565b818103606083015261295f81846125f1565b905095945050505050565b600061297582612825565b9050919050565b6129858161296a565b82525050565b60006020820190506129a0600083018461297c565b92915050565b6129af8161243f565b81146129ba57600080fd5b50565b6000813590506129cc816129a6565b92915050565b600080604083850312156129e9576129e86123b0565b5b60006129f7858286016126ec565b9250506020612a08858286016129bd565b9150509250929050565b600080fd5b7f4e487b7100000000000000000000000000000000000000000000000000000000600052604160045260246000fd5b612a4f826125e0565b810181811067ffffffffffffffff82111715612a6e57612a6d612a17565b5b80604052505050565b6000612a816123a6565b9050612a8d8282612a46565b919050565b600067ffffffffffffffff821115612aad57612aac612a17565b5b612ab6826125e0565b9050602081019050919050565b82818337600083830152505050565b6000612ae5612ae084612a92565b612a77565b905082815260208101848484011115612b0157612b00612a12565b5b612b0c848285612ac3565b509392505050565b600082601f830112612b2957612b28612475565b5b8135612b39848260208601612ad2565b91505092915050565b60008060008060808587031215612b5c57612b5b6123b0565b5b6000612b6a878288016126ec565b9450506020612b7b878288016126ec565b9350506040612b8c878288016124fb565b925050606085013567ffffffffffffffff811115612bad57612bac6123b5565b5b612bb987828801612b14565b91505092959194509250565b60008060208385031215612bdc57612bdb6123b0565b5b600083013567ffffffffffffffff811115612bfa57612bf96123b5565b5b612c0685828601612484565b92509250509250929050565b60008060408385031215612c2957612c286123b0565b5b6000612c37858286016126ec565b9250506020612c48858286016126ec565b9150509250929050565b60028110612c5f57600080fd5b50565b600081519050612c7181612c52565b92915050565b600060208284031215612c8d57612c8c6123b0565b5b6000612c9b84828501612c62565b91505092915050565b7f4f6e6c7920737570706c696572732063616e206d696e74000000000000000000600082015250565b6000612cda6017836125a5565b9150612ce582612ca4565b602082019050919050565b60006020820190508181036000830152612d0981612ccd565b9050919050565b600081519050612d1f816129a6565b92915050565b600060208284031215612d3b57612d3a6123b0565b5b6000612d4984828501612d10565b91505092915050565b7f496e76616c6964206f72206d697373696e672063657274696669636174650000600082015250565b6000612d88601e836125a5565b9150612d9382612d52565b602082019050919050565b60006020820190508181036000830152612db781612d7b565b9050919050565b7f45787069726174696f6e2063616e206e6f7420626520696e207468652070617360008201527f7400000000000000000000000000000000000000000000000000000000000000602082015250565b6000612e1a6021836125a5565b9150612e2582612dbe565b604082019050919050565b60006020820190508181036000830152612e4981612e0d565b9050919050565b7f4e487b7100000000000000000000000000000000000000000000000000000000600052601160045260246000fd5b6000612e8a826124da565b91507fffffffffffffffffffffffffffffffffffffffffffffffffffffffffffffffff8203612ebc57612ebb612e50565b5b600182019050919050565b7f4e487b7100000000000000000000000000000000000000000000000000000000600052602260045260246000fd5b60006002820490506001821680612f0e57607f821691505b602082108103612f2157612f20612ec7565b5b50919050565b60008190508160005260206000209050919050565b60006020601f8301049050919050565b600082821b905092915050565b600060088302612f897fffffffffffffffffffffffffffffffffffffffffffffffffffffffffffffffff82612f4c565b612f938683612f4c565b95508019841693508086168417925050509392505050565b6000612fc6612fc1612fbc846124da565b6127f9565b6124da565b9050919050565b6000819050919050565b612fe083612fab565b612ff4612fec82612fcd565b848454612f59565b825550505050565b600090565b613009612ffc565b613014818484612fd7565b505050565b5b818110156130385761302d600082613001565b60018101905061301a565b5050565b601f82111561307d5761304e81612f27565b61305784612f3c565b81016020851015613066578190505b61307a61307285612f3c565b830182613019565b50505b505050565b600082821c905092915050565b60006130a060001984600802613082565b1980831691505092915050565b60006130b9838361308f565b9150826002028217905092915050565b6130d28261259a565b67ffffffffffffffff8111156130eb576130ea612a17565b5b6130f58254612ef6565b61310082828561303c565b600060209050601f8311600181146131335760008415613121578287015190505b61312b85826130ad565b865550613193565b601f19841661314186612f27565b60005b8281101561316957848901518255600182019150602085019450602081019050613144565b868310156131865784890151613182601f89168261308f565b8355505b6001600288020188555050505b505050505050565b60006060820190506131b060008301866126ab565b6131bd6020830185612570565b6131ca60408301846126ab565b949350505050565b7f4f6e6c79206f776e65722063616e207570646174652073746174757300000000600082015250565b6000613208601c836125a5565b9150613213826131d2565b602082019050919050565b60006020820190508181036000830152613237816131fb565b9050919050565b7f546f6b656e20646f6573206e6f74206578697374000000000000000000000000600082015250565b60006132746014836125a5565b915061327f8261323e565b602082019050919050565b600060208201905081810360008301526132a381613267565b9050919050565b7f55524920717565727920666f72206e6f6e6578697374656e7420746f6b656e00600082015250565b60006132e0601f836125a5565b91506132eb826132aa565b602082019050919050565b6000602082019050818103600083015261330f816132d3565b9050919050565b6000613321826124da565b915061332c836124da565b925082820190508082111561334457613343612e50565b5b92915050565b7f4e487b7100000000000000000000000000000000000000000000000000000000600052601260045260246000fd5b600081519050919050565b600082825260208201905092915050565b60006133a082613379565b6133aa8185613384565b93506133ba8185602086016125b6565b6133c3816125e0565b840191505092915050565b60006080820190506133e360008301876126ab565b6133f060208301866126ab565b6133fd6040830185612570565b818103606083015261340f8184613395565b905095945050505050565b600081519050613429816123e6565b92915050565b600060208284031215613445576134446123b0565b5b60006134538482850161341a565b91505092915050565b600060408201905061347160008301856126ab565b61347e6020830184612570565b939250505056fea2646970667358221220c0c89199b305c88fd043505d462e7438d147ee0ea6939076c7a7c7a0e9945b7e64736f6c63430008140033",
  "linkReferences": {},
  "deployedLinkReferences": {}
}