{
  "_format": "hh-sol-artifact-1",
  "contractName": "SoulBoundRole",
  "sourceName": "contracts/SoulBoundRole.sol",
  "abi": [
    {
      "inputs": [],
      "stateMutability": "nonpayable",
      "type": "constructor"
    },
    {
      "inputs": [
        {
          "internalType": "address",
          "name": "sender",
          "type": "address"
        },
        {
          "internalType": "uint256",
          "name": "tokenId",
          "type": "uint256"
        },
        {
          "internalType": "address",
          "name": "owner",
          "type": "address"
        }
      ],
      "name": "ERC721IncorrectOwner",
      "type": "error"
    },
    {
      "inputs": [
        {
          "internalType": "address",
          "name": "operator",
          "type": "address"
        },
        {
          "internalType": "uint256",
          "name": "tokenId",
          "type": "uint256"
        }
      ],
      "name": "ERC721InsufficientApproval",
      "type": "error"
    },
    {
      "inputs": [
        {
          "internalType": "address",
          "name": "approver",
          "type": "address"
        }
      ],
      "name": "ERC721InvalidApprover",
      "type": "error"
    },
    {
      "inputs": [
        {
          "internalType": "address",
          "name": "operator",
          "type": "address"
        }
      ],
      "name": "ERC721InvalidOperator",
      "type": "error"
    },
    {
      "inputs": [
        {
          "internalType": "address",
          "name": "owner",
          "type": "address"
        }
      ],
      "name": "ERC721InvalidOwner",
      "type": "error"
    },
    {
      "inputs": [
        {
          "internalType": "address",
          "name": "receiver",
          "type": "address"
        }
      ],
      "name": "ERC721InvalidReceiver",
      "type": "error"
    },
    {
      "inputs": [
        {
          "internalType": "address",
          "name": "sender",
          "type": "address"
        }
      ],
      "name": "ERC721InvalidSender",
      "type": "error"
    },
    {
      "inputs": [
        {
          "internalType": "uint256",
          "name": "tokenId",
          "type": "uint256"
        }
      ],
      "name": "ERC721NonexistentToken",
      "type": "error"
    },
    {
      "inputs": [
        {
          "internalType": "address",
          "name": "owner",
          "type": "address"
        }
      ],
      "name": "OwnableInvalidOwner",
      "type": "error"
    },
    {
      "inputs": [
        {
          "internalType": "address",
          "name": "account",
          "type": "address"
        }
      ],
      "name": "OwnableUnauthorizedAccount",
      "type": "error"
    },
    {
      "anonymous": false,
      "inputs": [
        {
          "indexed": true,
          "internalType": "address",
          "name": "owner",
          "type": "address"
        },
        {
          "indexed": true,
          "internalType": "address",
          "name": "approved",
          "type": "address"
        },
        {
          "indexed": true,
          "internalType": "uint256",
          "name": "tokenId",
          "type": "uint256"
        }
      ],
      "name": "Approval",
      "type": "event"
    },
    {
      "anonymous": false,
      "inputs": [
        {
          "indexed": true,
          "internalType": "address",
          "name": "owner",
          "type": "address"
        },
        {
          "indexed": true,
          "internalType": "address",
          "name": "operator",
          "type": "address"
        },
        {
          "indexed": false,
          "internalType": "bool",
          "name": "approved",
          "type": "bool"
        }
      ],
      "name": "ApprovalForAll",
      "type": "event"
    },
    {
      "anonymous": false,
      "inputs": [
        {
          "indexed": true,
          "internalType": "address",
          "name": "previousOwner",
          "type": "address"
        },
        {
          "indexed": true,
          "internalType": "address",
          "name": "newOwner",
          "type": "address"
        }
      ],
      "name": "OwnershipTransferred",
      "type": "event"
    },
    {
      "anonymous": false,
      "inputs": [
        {
          "indexed": true,
          "internalType": "address",
          "name": "from",
          "type": "address"
        },
        {
          "indexed": true,
          "internalType": "address",
          "name": "to",
          "type": "address"
        },
        {
          "indexed": true,
          "internalType": "uint256",
          "name": "tokenId",
          "type": "uint256"
        }
      ],
      "name": "Transfer",
      "type": "event"
    },
    {
      "inputs": [
        {
          "internalType": "address",
          "name": "to",
          "type": "address"
        },
        {
          "internalType": "uint256",
          "name": "tokenId",
          "type": "uint256"
        }
      ],
      "name": "approve",
      "outputs": [],
      "stateMutability": "nonpayable",
      "type": "function"
    },
    {
      "inputs": [
        {
          "internalType": "address",
          "name": "owner",
          "type": "address"
        }
      ],
      "name": "balanceOf",
      "outputs": [
        {
          "internalType": "uint256",
          "name": "",
          "type": "uint256"
        }
      ],
      "stateMutability": "view",
      "type": "function"
    },
    {
      "inputs": [
        {
          "internalType": "uint256",
          "name": "tokenId",
          "type": "uint256"
        }
      ],
      "name": "getApproved",
      "outputs": [
        {
          "internalType": "address",
          "name": "",
          "type": "address"
        }
      ],
      "stateMutability": "view",
      "type": "function"
    },
    {
      "inputs": [
        {
          "internalType": "address",
          "name": "user",
          "type": "address"
        }
      ],
      "name": "getRole",
      "outputs": [
        {
          "internalType": "enum SoulBoundRole.Role",
          "name": "",
          "type": "uint8"
        }
      ],
      "stateMutability": "view",
      "type": "function"
    },
    {
      "inputs": [
        {
          "internalType": "address",
          "name": "",
          "type": "address"
        }
      ],
      "name": "hasToken",
      "outputs": [
        {
          "internalType": "bool",
          "name": "",
          "type": "bool"
        }
      ],
      "stateMutability": "view",
      "type": "function"
    },
    {
      "inputs": [
        {
          "internalType": "address",
          "name": "owner",
          "type": "address"
        },
        {
          "internalType": "address",
          "name": "operator",
          "type": "address"
        }
      ],
      "name": "isApprovedForAll",
      "outputs": [
        {
          "internalType": "bool",
          "name": "",
          "type": "bool"
        }
      ],
      "stateMutability": "view",
      "type": "function"
    },
    {
      "inputs": [],
      "name": "name",
      "outputs": [
        {
          "internalType": "string",
          "name": "",
          "type": "string"
        }
      ],
      "stateMutability": "view",
      "type": "function"
    },
    {
      "inputs": [],
      "name": "nextTokenId",
      "outputs": [
        {
          "internalType": "uint256",
          "name": "",
          "type": "uint256"
        }
      ],
      "stateMutability": "view",
      "type": "function"
    },
    {
      "inputs": [],
      "name": "owner",
      "outputs": [
        {
          "internalType": "address",
          "name": "",
          "type": "address"
        }
      ],
      "stateMutability": "view",
      "type": "function"
    },
    {
      "inputs": [
        {
          "internalType": "uint256",
          "name": "tokenId",
          "type": "uint256"
        }
      ],
      "name": "ownerOf",
      "outputs": [
        {
          "internalType": "address",
          "name": "",
          "type": "address"
        }
      ],
      "stateMutability": "view",
      "type": "function"
    },
    {
      "inputs": [
        {
          "internalType": "enum SoulBoundRole.Role",
          "name": "role",
          "type": "uint8"
        }
      ],
      "name": "registerUser",
      "outputs": [],
      "stateMutability": "nonpayable",
      "type": "function"
    },
    {
      "inputs": [],
      "name": "renounceOwnership",
      "outputs": [],
      "stateMutability": "nonpayable",
      "type": "function"
    },
    {
      "inputs": [
        {
          "internalType": "address",
          "name": "from",
          "type": "address"
        },
        {
          "internalType": "address",
          "name": "to",
          "type": "address"
        },
        {
          "internalType": "uint256",
          "name": "tokenId",
          "type": "uint256"
        }
      ],
      "name": "safeTransferFrom",
      "outputs": [],
      "stateMutability": "nonpayable",
      "type": "function"
    },
    {
      "inputs": [
        {
          "internalType": "address",
          "name": "from",
          "type": "address"
        },
        {
          "internalType": "address",
          "name": "to",
          "type": "address"
        },
        {
          "internalType": "uint256",
          "name": "tokenId",
          "type": "uint256"
        },
        {
          "internalType": "bytes",
          "name": "data",
          "type": "bytes"
        }
      ],
      "name": "safeTransferFrom",
      "outputs": [],
      "stateMutability": "nonpayable",
      "type": "function"
    },
    {
      "inputs": [
        {
          "internalType": "address",
          "name": "operator",
          "type": "address"
        },
        {
          "internalType": "bool",
          "name": "approved",
          "type": "bool"
        }
      ],
      "name": "setApprovalForAll",
      "outputs": [],
      "stateMutability": "nonpayable",
      "type": "function"
    },
    {
      "inputs": [
        {
          "internalType": "bytes4",
          "name": "interfaceId",
          "type": "bytes4"
        }
      ],
      "name": "supportsInterface",
      "outputs": [
        {
          "internalType": "bool",
          "name": "",
          "type": "bool"
        }
      ],
      "stateMutability": "view",
      "type": "function"
    },
    {
      "inputs": [],
      "name": "symbol",
      "outputs": [
        {
          "internalType": "string",
          "name": "",
          "type": "string"
        }
      ],
      "stateMutability": "view",
      "type": "function"
    },
    {
      "inputs": [
        {
          "internalType": "uint256",
          "name": "tokenId",
          "type": "uint256"
        }
      ],
      "name": "tokenURI",
      "outputs": [
        {
          "internalType": "string",
          "name": "",
          "type": "string"
        }
      ],
      "stateMutability": "view",
      "type": "function"
    },
    {
      "inputs": [
        {
          "internalType": "address",
          "name": "from",
          "type": "address"
        },
        {
          "internalType": "address",
          "name": "to",
          "type": "address"
        },
        {
          "internalType": "uint256",
          "name": "tokenId",
          "type": "uint256"
        }
      ],
      "name": "transferFrom",
      "outputs": [],
      "stateMutability": "nonpayable",
      "type": "function"
    },
    {
      "inputs": [
        {
          "internalType": "address",
          "name": "newOwner",
          "type": "address"
        }
      ],
      "name": "transferOwnership",
      "outputs": [],
      "stateMutability": "nonpayable",
      "type": "function"
    },
    {
      "inputs": [
        {
          "internalType": "address",
          "name": "",
          "type": "address"
        }
      ],
      "name": "userRoles",
      "outputs": [
        {
          "internalType": "enum SoulBoundRole.Role",
          "name": "",
          "type": "uint8"
        }
      ],
      "stateMutability": "view",
      "type": "function"
    }
  ],
  "bytecode": "0x608060405260016009553480156200001657600080fd5b50336040518060400160405280601481526020017f436f6e737472756374696f6e4964656e746974790000000000000000000000008152506040518060400160405280600681526020017f434944454e540000000000000000000000000000000000000000000000000000815250816000908162000095919062000477565b508060019081620000a7919062000477565b505050600073ffffffffffffffffffffffffffffffffffffffff168173ffffffffffffffffffffffffffffffffffffffff16036200011f5760006040517f1e4fbdf7000000000000000000000000000000000000000000000000000000008152600401620001169190620005a3565b60405180910390fd5b62000130816200013760201b60201c565b50620005c0565b6000600660009054906101000a900473ffffffffffffffffffffffffffffffffffffffff16905081600660006101000a81548173ffffffffffffffffffffffffffffffffffffffff021916908373ffffffffffffffffffffffffffffffffffffffff1602179055508173ffffffffffffffffffffffffffffffffffffffff168173ffffffffffffffffffffffffffffffffffffffff167f8be0079c531659141344cd1fd0a4f28419497f9722a3daafe3b4186f6b6457e060405160405180910390a35050565b600081519050919050565b7f4e487b7100000000000000000000000000000000000000000000000000000000600052604160045260246000fd5b7f4e487b7100000000000000000000000000000000000000000000000000000000600052602260045260246000fd5b600060028204905060018216806200027f57607f821691505b60208210810362000295576200029462000237565b5b50919050565b60008190508160005260206000209050919050565b60006020601f8301049050919050565b600082821b905092915050565b600060088302620002ff7fffffffffffffffffffffffffffffffffffffffffffffffffffffffffffffffff82620002c0565b6200030b8683620002c0565b95508019841693508086168417925050509392505050565b6000819050919050565b6000819050919050565b600062000358620003526200034c8462000323565b6200032d565b62000323565b9050919050565b6000819050919050565b620003748362000337565b6200038c62000383826200035f565b848454620002cd565b825550505050565b600090565b620003a362000394565b620003b081848462000369565b505050565b5b81811015620003d857620003cc60008262000399565b600181019050620003b6565b5050565b601f8211156200042757620003f1816200029b565b620003fc84620002b0565b810160208510156200040c578190505b620004246200041b85620002b0565b830182620003b5565b50505b505050565b600082821c905092915050565b60006200044c600019846008026200042c565b1980831691505092915050565b600062000467838362000439565b9150826002028217905092915050565b6200048282620001fd565b67ffffffffffffffff8111156200049e576200049d62000208565b5b620004aa825462000266565b620004b7828285620003dc565b600060209050601f831160018114620004ef5760008415620004da578287015190505b620004e6858262000459565b86555062000556565b601f198416620004ff866200029b565b60005b82811015620005295784890151825560018201915060208501945060208101905062000502565b8683101562000549578489015162000545601f89168262000439565b8355505b6001600288020188555050505b505050505050565b600073ffffffffffffffffffffffffffffffffffffffff82169050919050565b60006200058b826200055e565b9050919050565b6200059d816200057e565b82525050565b6000602082019050620005ba600083018462000592565b92915050565b61274580620005d06000396000f3fe608060405234801561001057600080fd5b50600436106101375760003560e01c8063715018a6116100b85780639bb0f5991161007c5780639bb0f5991461034e578063a22cb4651461037e578063b88d4fde1461039a578063c87b56dd146103b6578063e985e9c5146103e6578063f2fde38b1461041657610137565b8063715018a6146102ba57806374d5e100146102c457806375794a3c146102f45780638da5cb5b1461031257806395d89b411461033057610137565b806323b872dd116100ff57806323b872dd146101f257806342842e0e1461020e578063442767331461022a5780636352211e1461025a57806370a082311461028a57610137565b806301ffc9a71461013c57806302b8c8cd1461016c57806306fdde0314610188578063081812fc146101a6578063095ea7b3146101d6575b600080fd5b61015660048036038101906101519190611cf0565b610432565b6040516101639190611d38565b60405180910390f35b61018660048036038101906101819190611d78565b610514565b005b610190610689565b60405161019d9190611e35565b60405180910390f35b6101c060048036038101906101bb9190611e8d565b61071b565b6040516101cd9190611efb565b60405180910390f35b6101f060048036038101906101eb9190611f42565b610737565b005b61020c60048036038101906102079190611f82565b61074d565b005b61022860048036038101906102239190611f82565b61084f565b005b610244600480360381019061023f9190611fd5565b61086f565b6040516102519190612079565b60405180910390f35b610274600480360381019061026f9190611e8d565b610951565b6040516102819190611efb565b60405180910390f35b6102a4600480360381019061029f9190611fd5565b610963565b6040516102b191906120a3565b60405180910390f35b6102c2610a1d565b005b6102de60048036038101906102d99190611fd5565b610a31565b6040516102eb9190612079565b60405180910390f35b6102fc610a51565b60405161030991906120a3565b60405180910390f35b61031a610a57565b6040516103279190611efb565b60405180910390f35b610338610a81565b6040516103459190611e35565b60405180910390f35b61036860048036038101906103639190611fd5565b610b13565b6040516103759190611d38565b60405180910390f35b610398600480360381019061039391906120ea565b610b33565b005b6103b460048036038101906103af919061225f565b610b49565b005b6103d060048036038101906103cb9190611e8d565b610b6e565b6040516103dd9190611e35565b60405180910390f35b61040060048036038101906103fb91906122e2565b610bd7565b60405161040d9190611d38565b60405180910390f35b610430600480360381019061042b9190611fd5565b610c6b565b005b60007f80ac58cd000000000000000000000000000000000000000000000000000000007bffffffffffffffffffffffffffffffffffffffffffffffffffffffff1916827bffffffffffffffffffffffffffffffffffffffffffffffffffffffff191614806104fd57507f5b5e139f000000000000000000000000000000000000000000000000000000007bffffffffffffffffffffffffffffffffffffffffffffffffffffffff1916827bffffffffffffffffffffffffffffffffffffffffffffffffffffffff1916145b8061050d575061050c82610cf1565b5b9050919050565b600860003373ffffffffffffffffffffffffffffffffffffffff1673ffffffffffffffffffffffffffffffffffffffff16815260200190815260200160002060009054906101000a900460ff16156105a1576040517f08c379a00000000000000000000000000000000000000000000000000000000081526004016105989061236e565b60405180910390fd5b6000600960008154809291906105b6906123bd565b9190505590506105c63382610d5b565b6001600860003373ffffffffffffffffffffffffffffffffffffffff1673ffffffffffffffffffffffffffffffffffffffff16815260200190815260200160002060006101000a81548160ff02191690831515021790555081600760003373ffffffffffffffffffffffffffffffffffffffff1673ffffffffffffffffffffffffffffffffffffffff16815260200190815260200160002060006101000a81548160ff021916908360018111156106805761067f612002565b5b02179055505050565b60606000805461069890612434565b80601f01602080910402602001604051908101604052809291908181526020018280546106c490612434565b80156107115780601f106106e657610100808354040283529160200191610711565b820191906000526020600020905b8154815290600101906020018083116106f457829003601f168201915b5050505050905090565b600061072682610d79565b5061073082610e01565b9050919050565b6107498282610744610e3e565b610e46565b5050565b600073ffffffffffffffffffffffffffffffffffffffff168273ffffffffffffffffffffffffffffffffffffffff16036107bf5760006040517f64a0ae920000000000000000000000000000000000000000000000000000000081526004016107b69190611efb565b60405180910390fd5b60006107d383836107ce610e3e565b610e58565b90508373ffffffffffffffffffffffffffffffffffffffff168173ffffffffffffffffffffffffffffffffffffffff1614610849578382826040517f64283d7b00000000000000000000000000000000000000000000000000000000815260040161084093929190612465565b60405180910390fd5b50505050565b61086a83838360405180602001604052806000815250610b49565b505050565b6000600860008373ffffffffffffffffffffffffffffffffffffffff1673ffffffffffffffffffffffffffffffffffffffff16815260200190815260200160002060009054906101000a900460ff166108fd576040517f08c379a00000000000000000000000000000000000000000000000000000000081526004016108f4906124e8565b60405180910390fd5b600760008373ffffffffffffffffffffffffffffffffffffffff1673ffffffffffffffffffffffffffffffffffffffff16815260200190815260200160002060009054906101000a900460ff169050919050565b600061095c82610d79565b9050919050565b60008073ffffffffffffffffffffffffffffffffffffffff168273ffffffffffffffffffffffffffffffffffffffff16036109d65760006040517f89c62b640000000000000000000000000000000000000000000000000000000081526004016109cd9190611efb565b60405180910390fd5b600360008373ffffffffffffffffffffffffffffffffffffffff1673ffffffffffffffffffffffffffffffffffffffff168152602001908152602001600020549050919050565b610a25610f21565b610a2f6000610fa8565b565b60076020528060005260406000206000915054906101000a900460ff1681565b60095481565b6000600660009054906101000a900473ffffffffffffffffffffffffffffffffffffffff16905090565b606060018054610a9090612434565b80601f0160208091040260200160405190810160405280929190818152602001828054610abc90612434565b8015610b095780601f10610ade57610100808354040283529160200191610b09565b820191906000526020600020905b815481529060010190602001808311610aec57829003601f168201915b5050505050905090565b60086020528060005260406000206000915054906101000a900460ff1681565b610b45610b3e610e3e565b838361106e565b5050565b610b5484848461074d565b610b68610b5f610e3e565b858585856111dd565b50505050565b6060610b7982610d79565b506000610b8461138e565b90506000815111610ba45760405180602001604052806000815250610bcf565b80610bae846113a5565b604051602001610bbf929190612544565b6040516020818303038152906040525b915050919050565b6000600560008473ffffffffffffffffffffffffffffffffffffffff1673ffffffffffffffffffffffffffffffffffffffff16815260200190815260200160002060008373ffffffffffffffffffffffffffffffffffffffff1673ffffffffffffffffffffffffffffffffffffffff16815260200190815260200160002060009054906101000a900460ff16905092915050565b610c73610f21565b600073ffffffffffffffffffffffffffffffffffffffff168173ffffffffffffffffffffffffffffffffffffffff1603610ce55760006040517f1e4fbdf7000000000000000000000000000000000000000000000000000000008152600401610cdc9190611efb565b60405180910390fd5b610cee81610fa8565b50565b60007f01ffc9a7000000000000000000000000000000000000000000000000000000007bffffffffffffffffffffffffffffffffffffffffffffffffffffffff1916827bffffffffffffffffffffffffffffffffffffffffffffffffffffffff1916149050919050565b610d75828260405180602001604052806000815250611473565b5050565b600080610d8583611497565b9050600073ffffffffffffffffffffffffffffffffffffffff168173ffffffffffffffffffffffffffffffffffffffff1603610df857826040517f7e273289000000000000000000000000000000000000000000000000000000008152600401610def91906120a3565b60405180910390fd5b80915050919050565b60006004600083815260200190815260200160002060009054906101000a900473ffffffffffffffffffffffffffffffffffffffff169050919050565b600033905090565b610e5383838360016114d4565b505050565b600080610e6484611497565b9050600073ffffffffffffffffffffffffffffffffffffffff168173ffffffffffffffffffffffffffffffffffffffff161480610ecd5750600073ffffffffffffffffffffffffffffffffffffffff168573ffffffffffffffffffffffffffffffffffffffff16145b610f0c576040517f08c379a0000000000000000000000000000000000000000000000000000000008152600401610f03906125b4565b60405180910390fd5b610f17858585611699565b9150509392505050565b610f29610e3e565b73ffffffffffffffffffffffffffffffffffffffff16610f47610a57565b73ffffffffffffffffffffffffffffffffffffffff1614610fa657610f6a610e3e565b6040517f118cdaa7000000000000000000000000000000000000000000000000000000008152600401610f9d9190611efb565b60405180910390fd5b565b6000600660009054906101000a900473ffffffffffffffffffffffffffffffffffffffff16905081600660006101000a81548173ffffffffffffffffffffffffffffffffffffffff021916908373ffffffffffffffffffffffffffffffffffffffff1602179055508173ffffffffffffffffffffffffffffffffffffffff168173ffffffffffffffffffffffffffffffffffffffff167f8be0079c531659141344cd1fd0a4f28419497f9722a3daafe3b4186f6b6457e060405160405180910390a35050565b600073ffffffffffffffffffffffffffffffffffffffff168273ffffffffffffffffffffffffffffffffffffffff16036110df57816040517f5b08ba180000000000000000000000000000000000000000000000000000000081526004016110d69190611efb565b60405180910390fd5b80600560008573ffffffffffffffffffffffffffffffffffffffff1673ffffffffffffffffffffffffffffffffffffffff16815260200190815260200160002060008473ffffffffffffffffffffffffffffffffffffffff1673ffffffffffffffffffffffffffffffffffffffff16815260200190815260200160002060006101000a81548160ff0219169083151502179055508173ffffffffffffffffffffffffffffffffffffffff168373ffffffffffffffffffffffffffffffffffffffff167f17307eab39ab6107e8899845ad3d59bd9653f200f220920489ca2b5937696c31836040516111d09190611d38565b60405180910390a3505050565b60008373ffffffffffffffffffffffffffffffffffffffff163b1115611387578273ffffffffffffffffffffffffffffffffffffffff1663150b7a02868685856040518563ffffffff1660e01b815260040161123c9493929190612629565b6020604051808303816000875af192505050801561127857506040513d601f19601f82011682018060405250810190611275919061268a565b60015b6112fc573d80600081146112a8576040519150601f19603f3d011682016040523d82523d6000602084013e6112ad565b606091505b5060008151036112f457836040517f64a0ae920000000000000000000000000000000000000000000000000000000081526004016112eb9190611efb565b60405180910390fd5b805160208201fd5b63150b7a0260e01b7bffffffffffffffffffffffffffffffffffffffffffffffffffffffff1916817bffffffffffffffffffffffffffffffffffffffffffffffffffffffff19161461138557836040517f64a0ae9200000000000000000000000000000000000000000000000000000000815260040161137c9190611efb565b60405180910390fd5b505b5050505050565b606060405180602001604052806000815250905090565b6060600060016113b4846118b3565b01905060008167ffffffffffffffff8111156113d3576113d2612134565b5b6040519080825280601f01601f1916602001820160405280156114055781602001600182028036833780820191505090505b509050600082602083010190505b600115611468578080600190039150507f3031323334353637383961626364656600000000000000000000000000000000600a86061a8153600a858161145c5761145b6126b7565b5b04945060008503611413575b819350505050919050565b61147d8383611a06565b611492611488610e3e565b60008585856111dd565b505050565b60006002600083815260200190815260200160002060009054906101000a900473ffffffffffffffffffffffffffffffffffffffff169050919050565b808061150d5750600073ffffffffffffffffffffffffffffffffffffffff168273ffffffffffffffffffffffffffffffffffffffff1614155b1561164157600061151d84610d79565b9050600073ffffffffffffffffffffffffffffffffffffffff168373ffffffffffffffffffffffffffffffffffffffff161415801561158857508273ffffffffffffffffffffffffffffffffffffffff168173ffffffffffffffffffffffffffffffffffffffff1614155b801561159b57506115998184610bd7565b155b156115dd57826040517fa9fbf51f0000000000000000000000000000000000000000000000000000000081526004016115d49190611efb565b60405180910390fd5b811561163f57838573ffffffffffffffffffffffffffffffffffffffff168273ffffffffffffffffffffffffffffffffffffffff167f8c5be1e5ebec7d5bd14f71427d1e84f3dd0314c0f7b2291e5b200ac8c7c3b92560405160405180910390a45b505b836004600085815260200190815260200160002060006101000a81548173ffffffffffffffffffffffffffffffffffffffff021916908373ffffffffffffffffffffffffffffffffffffffff16021790555050505050565b6000806116a584611497565b9050600073ffffffffffffffffffffffffffffffffffffffff168373ffffffffffffffffffffffffffffffffffffffff16146116e7576116e6818486611aff565b5b600073ffffffffffffffffffffffffffffffffffffffff168173ffffffffffffffffffffffffffffffffffffffff1614611778576117296000856000806114d4565b6001600360008373ffffffffffffffffffffffffffffffffffffffff1673ffffffffffffffffffffffffffffffffffffffff168152602001908152602001600020600082825403925050819055505b600073ffffffffffffffffffffffffffffffffffffffff168573ffffffffffffffffffffffffffffffffffffffff16146117fb576001600360008773ffffffffffffffffffffffffffffffffffffffff1673ffffffffffffffffffffffffffffffffffffffff168152602001908152602001600020600082825401925050819055505b846002600086815260200190815260200160002060006101000a81548173ffffffffffffffffffffffffffffffffffffffff021916908373ffffffffffffffffffffffffffffffffffffffff160217905550838573ffffffffffffffffffffffffffffffffffffffff168273ffffffffffffffffffffffffffffffffffffffff167fddf252ad1be2c89b69c2b068fc378daa952ba7f163c4a11628f55a4df523b3ef60405160405180910390a4809150509392505050565b600080600090507a184f03e93ff9f4daa797ed6e38ed64bf6a1f0100000000000000008310611911577a184f03e93ff9f4daa797ed6e38ed64bf6a1f0100000000000000008381611907576119066126b7565b5b0492506040810190505b6d04ee2d6d415b85acef8100000000831061194e576d04ee2d6d415b85acef81000000008381611944576119436126b7565b5b0492506020810190505b662386f26fc10000831061197d57662386f26fc100008381611973576119726126b7565b5b0492506010810190505b6305f5e10083106119a6576305f5e100838161199c5761199b6126b7565b5b0492506008810190505b61271083106119cb5761271083816119c1576119c06126b7565b5b0492506004810190505b606483106119ee57606483816119e4576119e36126b7565b5b0492506002810190505b600a83106119fd576001810190505b80915050919050565b600073ffffffffffffffffffffffffffffffffffffffff168273ffffffffffffffffffffffffffffffffffffffff1603611a785760006040517f64a0ae92000000000000000000000000000000000000000000000000000000008152600401611a6f9190611efb565b60405180910390fd5b6000611a8683836000610e58565b9050600073ffffffffffffffffffffffffffffffffffffffff168173ffffffffffffffffffffffffffffffffffffffff1614611afa5760006040517f73c6ac6e000000000000000000000000000000000000000000000000000000008152600401611af19190611efb565b60405180910390fd5b505050565b611b0a838383611bc3565b611bbe57600073ffffffffffffffffffffffffffffffffffffffff168373ffffffffffffffffffffffffffffffffffffffff1603611b7f57806040517f7e273289000000000000000000000000000000000000000000000000000000008152600401611b7691906120a3565b60405180910390fd5b81816040517f177e802f000000000000000000000000000000000000000000000000000000008152600401611bb59291906126e6565b60405180910390fd5b505050565b60008073ffffffffffffffffffffffffffffffffffffffff168373ffffffffffffffffffffffffffffffffffffffff1614158015611c7b57508273ffffffffffffffffffffffffffffffffffffffff168473ffffffffffffffffffffffffffffffffffffffff161480611c3c5750611c3b8484610bd7565b5b80611c7a57508273ffffffffffffffffffffffffffffffffffffffff16611c6283610e01565b73ffffffffffffffffffffffffffffffffffffffff16145b5b90509392505050565b6000604051905090565b600080fd5b600080fd5b60007fffffffff0000000000000000000000000000000000000000000000000000000082169050919050565b611ccd81611c98565b8114611cd857600080fd5b50565b600081359050611cea81611cc4565b92915050565b600060208284031215611d0657611d05611c8e565b5b6000611d1484828501611cdb565b91505092915050565b60008115159050919050565b611d3281611d1d565b82525050565b6000602082019050611d4d6000830184611d29565b92915050565b60028110611d6057600080fd5b50565b600081359050611d7281611d53565b92915050565b600060208284031215611d8e57611d8d611c8e565b5b6000611d9c84828501611d63565b91505092915050565b600081519050919050565b600082825260208201905092915050565b60005b83811015611ddf578082015181840152602081019050611dc4565b60008484015250505050565b6000601f19601f8301169050919050565b6000611e0782611da5565b611e118185611db0565b9350611e21818560208601611dc1565b611e2a81611deb565b840191505092915050565b60006020820190508181036000830152611e4f8184611dfc565b905092915050565b6000819050919050565b611e6a81611e57565b8114611e7557600080fd5b50565b600081359050611e8781611e61565b92915050565b600060208284031215611ea357611ea2611c8e565b5b6000611eb184828501611e78565b91505092915050565b600073ffffffffffffffffffffffffffffffffffffffff82169050919050565b6000611ee582611eba565b9050919050565b611ef581611eda565b82525050565b6000602082019050611f106000830184611eec565b92915050565b611f1f81611eda565b8114611f2a57600080fd5b50565b600081359050611f3c81611f16565b92915050565b60008060408385031215611f5957611f58611c8e565b5b6000611f6785828601611f2d565b9250506020611f7885828601611e78565b9150509250929050565b600080600060608486031215611f9b57611f9a611c8e565b5b6000611fa986828701611f2d565b9350506020611fba86828701611f2d565b9250506040611fcb86828701611e78565b9150509250925092565b600060208284031215611feb57611fea611c8e565b5b6000611ff984828501611f2d565b91505092915050565b7f4e487b7100000000000000000000000000000000000000000000000000000000600052602160045260246000fd5b6002811061204257612041612002565b5b50565b600081905061205382612031565b919050565b600061206382612045565b9050919050565b61207381612058565b82525050565b600060208201905061208e600083018461206a565b92915050565b61209d81611e57565b82525050565b60006020820190506120b86000830184612094565b92915050565b6120c781611d1d565b81146120d257600080fd5b50565b6000813590506120e4816120be565b92915050565b6000806040838503121561210157612100611c8e565b5b600061210f85828601611f2d565b9250506020612120858286016120d5565b9150509250929050565b600080fd5b600080fd5b7f4e487b7100000000000000000000000000000000000000000000000000000000600052604160045260246000fd5b61216c82611deb565b810181811067ffffffffffffffff8211171561218b5761218a612134565b5b80604052505050565b600061219e611c84565b90506121aa8282612163565b919050565b600067ffffffffffffffff8211156121ca576121c9612134565b5b6121d382611deb565b9050602081019050919050565b82818337600083830152505050565b60006122026121fd846121af565b612194565b90508281526020810184848401111561221e5761221d61212f565b5b6122298482856121e0565b509392505050565b600082601f8301126122465761224561212a565b5b81356122568482602086016121ef565b91505092915050565b6000806000806080858703121561227957612278611c8e565b5b600061228787828801611f2d565b945050602061229887828801611f2d565b93505060406122a987828801611e78565b925050606085013567ffffffffffffffff8111156122ca576122c9611c93565b5b6122d687828801612231565b91505092959194509250565b600080604083850312156122f9576122f8611c8e565b5b600061230785828601611f2d565b925050602061231885828601611f2d565b9150509250929050565b7f416c726561647920726567697374657265640000000000000000000000000000600082015250565b6000612358601283611db0565b915061236382612322565b602082019050919050565b600060208201905081810360008301526123878161234b565b9050919050565b7f4e487b7100000000000000000000000000000000000000000000000000000000600052601160045260246000fd5b60006123c882611e57565b91507fffffffffffffffffffffffffffffffffffffffffffffffffffffffffffffffff82036123fa576123f961238e565b5b600182019050919050565b7f4e487b7100000000000000000000000000000000000000000000000000000000600052602260045260246000fd5b6000600282049050600182168061244c57607f821691505b60208210810361245f5761245e612405565b5b50919050565b600060608201905061247a6000830186611eec565b6124876020830185612094565b6124946040830184611eec565b949350505050565b7f55736572206e6f74207265676973746572656400000000000000000000000000600082015250565b60006124d2601383611db0565b91506124dd8261249c565b602082019050919050565b60006020820190508181036000830152612501816124c5565b9050919050565b600081905092915050565b600061251e82611da5565b6125288185612508565b9350612538818560208601611dc1565b80840191505092915050565b60006125508285612513565b915061255c8284612513565b91508190509392505050565b7f536f756c626f756e643a2063616e6e6f74207472616e73666572000000000000600082015250565b600061259e601a83611db0565b91506125a982612568565b602082019050919050565b600060208201905081810360008301526125cd81612591565b9050919050565b600081519050919050565b600082825260208201905092915050565b60006125fb826125d4565b61260581856125df565b9350612615818560208601611dc1565b61261e81611deb565b840191505092915050565b600060808201905061263e6000830187611eec565b61264b6020830186611eec565b6126586040830185612094565b818103606083015261266a81846125f0565b905095945050505050565b60008151905061268481611cc4565b92915050565b6000602082840312156126a05761269f611c8e565b5b60006126ae84828501612675565b91505092915050565b7f4e487b7100000000000000000000000000000000000000000000000000000000600052601260045260246000fd5b60006040820190506126fb6000830185611eec565b6127086020830184612094565b939250505056fea2646970667358221220f5c12f71221a4bdd70d46582f3551070ab41e8521b77651c15813dbb02f8179d64736f6c63430008140033",
  "linkReferences": {},
  "deployedLinkReferences": {}
}